:02000004900466
:1000000000000220110A04900D0A04904D60049033
:100010000D0A04900D0A04900D0A049000000000DF
:100020000000000000000000000000000D0A049025
:100030000D0A0490000000000D0A0490D15F0490A6
:100040000D0A04900D0A04900D0A04900D0A049004
:100050000D0A04900D0A04900D0A04900D0A0490F4
:100060000D0A04900D0A04900D0A0490D95B0490C7
:10007000E55B0490314B0490F15B0490FD5B0490D0
:1000800025130590055104900D0A04900D0A049063
:100090000D0A04900D0A04900D0A04900D0A0490B4
:1000A0000D0A04900D0A04900D0A04900D0A0490A4
:1000B000F906059005070590110705903951049040
:1000C0000D0A0490455104900D0A049069FF0490B4
:1000D00075FF04905911059089110590BD11059087
:1000E0000D0A04900D0A0490000000000D0A04900F
:1000F0000D0A04900D0A04900D0A04900D0A049054
:100100000D0A04900D0A04901D07059081FF0490CC
:10011000F1110590251205900D0A04900D0A049026
:100120000D0A04900D0A0490A5FF0490D9FF0490D5
:10013000591305900D0A04900D0A04900D0A0490BD
:1001400000000000000000000000000000000000AF
:100150000D0A04900D0A04900D0A0490591205909E
:10016000515104900D0A0490E15F049005600490E1
:100170000D0A0490296004900D0A04900D0A049061
:100180000D0A04900D0A04908D120590BD12059081
:100190008DFF049099FF04900D0A04900D0A0490BD
:1001A0000D0A04900D0A04900D0A04900D0A0490A3
:1001B000F95804900D0A04900D0A04900D0A049059
:1001C0000D0A04900D0A049045460490514604908F
:1001D0000D0A04905D4604900D0A04900D0A0490E7
:1001E0000D0A04900D0A04900D0A04900D0A049063
:1001F0000D0A04900D0A04900D0A04900D0A049053
:100200000D0A04900D0A04900D0A04900D0A049042
:100210000D0A04900D0A04900D0A04900D0A049032
:100220000D0A04900D0A04900D0A049000000000CD
:100230000D0A04900D0A0490000000000D0A0490BD
:100240000D0A04900D0A04900D0A04900D0A049002
:100250000D0A04900D0A04900D0A04900D0A0490F2
:100260000D0A04900D0A04900D0A04900D0A0490E2
:100270000D0A04900D0A0490F11205900000000090
:100280000D0A04900D0A04900D0A0490000000006D
:08029000000000000D0A0490BB
:1002A00010B5054C237833B9044B13B10448AFF3B0
:1002B00000800123237010BDE0070024000000002F
:1002C0005C80059008B5034B1BB103490348AFF3AD
:1002D000008008BD00000000E40700245C80059059
:1002E000034613F8012B002AFBD1181A0138704776
:1002F00001F0FF01102A2BDB10F0070F08D010F8D7
:10030000013B013A8B422DD010F0070F42B3F6D1DA
:10031000F0B441EA012141EA014122F007047FF0F3
:1003200000070023F0E80256083C85EA010586EA4A
:10033000010685FA47F5A3FA87F586FA47F6A5FA86
:1003400087F68EB9EED1F0BC01F0FF0102F0070292
:1003500032B110F8013B013A83EA010313B1F8D13D
:100360000020704701387047002D06BF354603381E
:10037000073815F0010F07D1013015F4807F02BF57
:10038000013015F4C03F0130F0BC0138704700BFA8
:1003900081F0004102E000BF83F0004330B54FEA36
:1003A00041044FEA430594EA050F08BF90EA020FA3
:1003B0001FBF54EA000C55EA020C7FEA645C7FEA36
:1003C000655C00F0E2804FEA5454D4EB5555B8BF59
:1003D0006D420CDD2C4480EA020281EA030382EACA
:1003E000000083EA010180EA020281EA0303362D5C
:1003F00088BF30BD11F0004F4FEA01314FF4801C2F
:100400004CEA113102D0404261EB410113F0004F40
:100410004FEA03334CEA133302D0524263EB4303F7
:1004200094EA050F00F0A780A4F10104D5F1200E95
:100430000DDB02FA0EFC22FA05F2801841F10001F0
:1004400003FA0EF2801843FA05F359410EE0A5F1C4
:1004500020050EF1200E012A03FA0EFC28BF4CF0F5
:10046000020C43FA05F3C01851EBE37101F00045AB
:1004700007D54FF0000EDCF1000C7EEB00006EEBB8
:100480000101B1F5801F1BD3B1F5001F0CD3490842
:100490005FEA30004FEA3C0C04F101044FEA445299
:1004A00012F5800F80F09A80BCF1004F08BF5FEA20
:1004B000500C50F1000041EB045141EA050130BD00
:1004C0005FEA4C0C404141EB0101013C28BFB1F512
:1004D000801FE9D291F0000F04BF01460020B1FA5D
:1004E00081F308BF2033A3F10B03B3F120020CDA30
:1004F0000C3208DD02F1140CC2F10C0201FA0CF00E
:1005000021FA02F10CE002F11402D8BFC2F1200C72
:1005100001FA02F120FA0CFCDCBF41EA0C01904028
:10052000E41AA2BF01EB0451294330BD6FEA040471
:100530001F3C1CDA0C340EDC04F11404C4F120025C
:1005400020FA04F001FA02F340EA030021FA04F36E
:1005500045EA030130BDC4F10C04C4F1200220FAC5
:1005600002F001FA04F340EA0300294630BD21FA03
:1005700004F0294630BD94F0000F83F4801306BFC9
:1005800081F480110134013D4EE77FEA645C18BFBD
:100590007FEA655C29D094EA050F08BF90EA020F54
:1005A00005D054EA000C04BF1946104630BD91EA4C
:1005B000030F1EBF0021002030BD5FEA545C05D14F
:1005C0004000494128BF41F0004130BD14F580048E
:1005D0003CBF01F5801130BD01F0004545F0FE4102
:1005E00041F470014FF0000030BD7FEA645C1ABF37
:1005F000194610467FEA655C1CBF0B46024650EA6E
:10060000013406BF52EA033591EA030F41F4002199
:1006100030BD00BF90F0000F04BF0021704730B51F
:100620004FF4806404F132044FF000054FF00001F4
:1006300050E700BF90F0000F04BF0021704730B5B5
:100640004FF4806404F1320410F0004548BF40428A
:100650004FF000013EE700BF42004FEAE2014FEADF
:1006600031014FEA02701FBF12F07F4393F07F4FBA
:1006700081F06051704732F07F4208BF704793F0BD
:100680007F4F04BF41F40021704730B54FF46074D0
:1006900001F0004521F000411CE700BF50EA0102D3
:1006A00008BF704730B54FF000050AE050EA01027C
:1006B00008BF704730B511F0004502D5404261EBEC
:1006C00041014FF4806404F132045FEA915C3FF42D
:1006D000D8AE4FF003025FEADC0C18BF03325FEACA
:1006E000DC0C18BF033202EBDC02C2F1200300FA7B
:1006F00003FC20FA02F001FA03FE40EA0E0021FAA0
:1007000002F11444BDE600BF53B94AB9002908BF3D
:1007100000281CBF4FF0FF314FF0FF3000F074B9DC
:10072000ADF1080C6DE904CE00F006F8DDF804E048
:10073000DDE9022304B070472DE9F047089D044627
:100740008E46002B4DD18A42944669D9B2FA82F284
:1007500052B101FA02F3C2F1200120FA01F10CFAC0
:1007600002FC41EA030E94404FEA1C48210CBEFBF8
:10077000F8F61FFA8CF708FB16E341EA034306FB81
:1007800007F199420AD91CEB030306F1FF3080F010
:100790001F81994240F21C81023E63445B1AA4B25D
:1007A000B3FBF8F008FB103344EA034400FB07F7FF
:1007B000A7420AD91CEB040400F1FF3380F00A8140
:1007C000A74240F207816444023840EA0640E41B35
:1007D00000261DB1D4400023C5E900433146BDE8E1
:1007E000F0878B4209D9002D00F0EF800026C5E983
:1007F000000130463146BDE8F087B3FA83F6002E9B
:100800004AD18B4202D3824200F2F980841A61EB12
:10081000030301209E46002DE0D0C5E9004EDDE730
:1008200002B9FFDEB2FA82F2002A40F09280A1EB18
:100830000C014FEA1C471FFA8CFE0126200CB1FB6D
:10084000F7F307FB131140EA01410EFB03F0884266
:1008500008D91CEB010103F1FF3802D2884200F2F3
:10086000CB804346091AA4B2B1FBF7F007FB101185
:1008700044EA01440EFB00FEA64508D91CEB040423
:1008800000F1FF3102D2A64500F2BB800846A4EB7E
:100890000E0440EA03409CE7C6F12007B34022FA69
:1008A00007FC4CEA030C20FA07F401FA06F31C4398
:1008B000F9404FEA1C4900FA06F3B1FBF9F8200CA5
:1008C0001FFA8CFE09FB181140EA014108FB0EF0EB
:1008D000884202FA06F20BD91CEB010108F1FF3A3B
:1008E00080F08880884240F28580A8F10208614447
:1008F000091AA4B2B1FBF9F009FB101144EA014155
:1009000000FB0EFE8E4508D91CEB010100F1FF34FF
:100910006CD28E456AD90238614440EA0840A0FB97
:100920000294A1EB0E01A142C846A64656D353D06D
:100930005DB1B3EB080261EB0E0101FA07F722FA91
:1009400006F3F1401F43C5E9007100263146BDE8BA
:10095000F087C2F12003D8400CFA02FC21FA03F31D
:10096000914001434FEA1C471FFA8CFEB3FBF7F09E
:1009700007FB10360B0C43EA064300FB0EF69E42C3
:1009800004FA02F408D91CEB030300F1FF382FD25C
:100990009E422DD9023863449B1B89B2B3FBF7F604
:1009A00007FB163341EA034106FB0EF38B4208D9DD
:1009B0001CEB010106F1FF3816D28B4214D9023E1E
:1009C0006144C91A46EA004638E72E46284605E73C
:1009D0000646E3E61846F8E64B45A9D2B9EB02080D
:1009E00064EB0C0E0138A3E74646EAE7204694E79D
:1009F0004046D1E7D0467BE7023B614432E73046D0
:100A000009E76444023842E7704700BFFEE7000090
:100A10000848094A0949121A13F00CFF0848094A04
:100A20000021121A13F014FF13F0D0FE00F0DEF9CB
:100A3000FEE700BF00000024E0070024908005903E
:100A4000E00700242CEA07247047704773B5104E66
:100A5000134605460C463268B2F5007F15D30D48A3
:100A6000019300F07EFE0022019B32600948019351
:100A7000D5E9001200F070FB019B0648D4E9001292
:100A800002B0BDE8704000F02EBC1A443260EDE7C1
:100A90003C880724380800247047704770478368F3
:100AA00010B5044613B1032201469847204610BDF5
:100AB00038B500F5EF35044605F5BC70FFF7EFFFDC
:100AC00005F5A670FFF7EBFF05F59070FFF7E7FF60
:100AD00005F1F400FFF7E3FF05F1C800FFF7DFFFC2
:100AE00005F19800FFF7DBFF04F59C403830FFF775
:100AF000D6FF04F59C400C30FFF7D1FF04F59B4076
:100B00005C30FFF7CCFF04F59B402C30FFF7C7FFAC
:100B100004F59B400430FFF7C2FF04F59A405430BF
:100B2000FFF7BDFF04F59A402430FFF7B8FF04F546
:100B300099407430FFF7B3FF04F599405430FFF744
:100B4000AEFF04F599402830FFF7A9FF04F598405F
:100B50007830FFF7A4FF04F598404830FFF79FFF77
:100B600004F14400FFF79BFF04F12400FFF797FF17
:100B7000204638BD00F5804370B503F65C42002482
:100B8000314D0646C462C46400F59C40C3F8504C25
:100B9000956003F68C42C3F8804C7430956003F680
:100BA000B842C3F8B04C956003F60852C3F8DC4C69
:100BB000C3F8FC4C956003F63852C3F82C4D956091
:100BC00003F66852C3F85C4D956003F55C62C3F8A8
:100BD0008C4DC3F8B44D956003F55F62C3F8E44DE6
:100BE000956003F61C62C3F8144E9560C3F8404E3E
:100BF00001F0A4FF06F5E833304603F6AC62C3F813
:100C0000A04E956003F6D862C3F8D04E956003F607
:100C10000472C3F8FC4E956003F57362C3F8284F65
:100C2000956003F65C72C3F8544F956003F57962E2
:100C3000C3F8804F956003F57C62C3F8B44F9560AC
:100C4000C3F8E44F70BD00BF0AD7233C38B500F5A8
:100C5000EF35044605F5EE70FFF721FF05F5D67078
:100C6000FFF71DFF2046FFF723FF204638BD10B5D4
:100C7000044600F5EF2000F5FC60FFF710FF04F5D7
:100C8000B32000F5FA60FFF7E1FF04F56F3000F5DF
:100C90007870FFF7DBFF04F5EF3000F5F870FFF731
:100CA000D5FF2046FFF7D2FF204610BD1FB5194CD7
:100CB000204602F0F1F82046002102F093F9204688
:100CC000042102F00BF92046032102F0EBF8124B4D
:100CD0000022214611481A60114B124A0293124B0E
:100CE0000193124B0093124B00F08AFB114B124AF6
:100CF00000931249124B094800F0E8F9114B124ACF
:100D000021460193114B05480093114B00F001FA65
:100D100004B010BDFC0700243C88072438080024D8
:100D200064000024240000245C00002454000024FB
:100D30004C00002444000024340000242C00002433
:100D40003C0000241C0000240400002414000024A3
:100D50000C00002410B506238EB0002201218DF86E
:100D60001A300223ADF8292004208DF82320052411
:100D70008DF820108DF821308DF82B208DF828303B
:100D80008DF82C10ADF8182003228DF81B308DF84B
:100D90001C100C218DF831308DF834300EAB8DF8ED
:100DA00022008DF824408DF82A008DF830208DF82F
:100DB00032108DF8332013E9030004908DF81410DD
:100DC000DDE90A0102908DF80C10DDE908010090C0
:100DD0008DF8041003480449DDE9062300F086FB82
:100DE0000EB010BD38080024FC07002400B5002414
:100DF000A1B00225FFF75AFFFFF7ACFF23492448B3
:100E000002F04CF88DF800508DF8014006A80099CA
:100E100003F02AFC03238DF804400DF129008DF81E
:100E20000530019903F020FC01230DF13A008DF803
:100E300008308DF80930029903F016FC07238DF86D
:100E40000C400DF14B008DF80D30039903F00CFCB4
:100E50008DF810408DF8115017A8049903F004FC88
:100E60008DF814408DF815400DF16D00059903F0D3
:100E7000FBFB0423062206A9064803F003FC0548F1
:100E800003F0E4FD204603F0CDFAFEE74D0A04909E
:100E9000FC0700241408002438B51C4800241C4D0D
:100EA0001C4A1D4904604461046213F077F9284626
:100EB000FFF760FE1948FFF75DFE1948FFF75AFE7D
:100EC0001848FFF757FE05F5EE23174803F6CC71D7
:100ED000C3F8E84F0F4A08602846144913F05EF93A
:100EE0000C4A1349204613F059F90A4A1149204681
:100EF00013F054F9074A1049204613F04FF92046E1
:100F0000044A0E49BDE8384013F048B9FC070024F4
:100F10003808002400000024490A049028E801242D
:100F200018C8032408A805240AD7233C6F0C049092
:100F30004B0A04909D0A0490990A04909B0A04901D
:100F400003680A6803F5EF2303F5FE631A60704730
:100F500003680A6803F5EF33C3F8EC2170470368B0
:100F60000A6803F56F33C3F8DC23704703680A6827
:100F700003F5B32303F2CC731A60704703680A6861
:100F800003F5EF2303F2BC731A60704703680A6825
:100F900003F5EF33C3F8BC21704703680A6803F513
:100FA0006F33C3F8AC23704703680A6803F5B323B3
:100FB00003F29C731A60704703680A6803F5EF2315
:100FC00003F28C731A607047012A02D1016000207D
:100FD0007047022A04BF0B680360F8E7012A02D1B8
:100FE000016000207047022A04BF0B680360F8E725
:100FF000012A02D1016000207047022A04BF0B6859
:101000000360F8E7012A02D1016000207047022A3C
:1010100004BF0B680360F8E7012A02D101600020D9
:101020007047022A04BF0B680360F8E7012A02D167
:10103000016000207047022A04BF0B680360F8E7D4
:10104000012A02D1016000207047022A04BF0B6808
:101050000360F8E7012A02D1016000207047022AEC
:1010600004BF0B680360F8E7012A02D10160002089
:101070007047022A04BF0B680360F8E70000000015
:1010800000F5EF3393ED7B0A9FED0D7BB7EEC06A61
:10109000B4EEC76BF1EE10FA0ED40378022B0BD02E
:1010A00001F5EF41623150F8213003EB8202D2EDBD
:1010B000007A20EE270A70479FED030A704700BFB1
:1010C0007B14AE47E17A743F00000000F0B500F5F4
:1010D000E83C0D6800F56C37059CCCF8885F156816
:1010E000C7F8785F00F5B2251E6800F5EE20C5F858
:1010F000686F2668C0F8586F4968CCF88C1F526832
:10110000C7F87C2F5B68C5F86C3F6368C0F85C3F2C
:10111000F0BD2DE9F04104460D461E46DDE9068787
:1011200000F028FC04F5EF303246294600F5F8704F
:1011300000F020FC04F56F304246294600F5787037
:1011400000F018FC04F5B3203A46294600F5FA6091
:10115000BDE8F04100F00EBC2DE9F04104460D461B
:1011600016461F4600F07FFC04F5EF303B46324642
:10117000294600F5F87000F076FC04F56F303B4628
:101180003246294600F5787000F06DFC04F5B32076
:101190003B463246294600F5FA60BDE8F04100F0D2
:1011A00062BC00F5EE230022C3F8C02F0278022AA9
:1011B0001CBF0122C3F8C02F00F5E83292F8F02FCF
:1011C000022A1EBFD3F8C02F0132C3F8C02F00F58A
:1011D0006C3200F5B22092F8E02F022A1EBFD3F83D
:1011E000C02F0132C3F8C02F90F8D02F022A1EBFA3
:1011F000D3F8C02F0132C3F8C02FD3F8C02F042A70
:10120000C4BF0422C3F8C02F70472DE9F84F8946A8
:10121000002405462DED048BFFF7C3FF4C455ED03F
:1012200005F5EF38224600212846FFF729FF08F58B
:10123000F878F0EE408A05F56F3705F5B3262246BB
:101240000021404607F57877FFF71AFF06F5FA66A2
:1012500078EE808A224605F5EE2A00213846FFF70F
:101260000FFF22460021304678EE808AFFF708FF04
:10127000DAF8C03F22460121284607EE903A38EEC0
:10128000800ADAF8F43F4FEA840BB8EEE79A03EBF2
:101290008403C0EE097AC3ED007AFFF7F1FEF0EEA9
:1012A000408A224601214046FFF7EAFE78EE808A16
:1012B000224601213846FFF7E3FE78EE808A224677
:1012C000012130460134FFF7DBFE38EE800ADAF800
:1012D000F83FC0EE097A5B44C3ED007A9EE7BDECAF
:1012E000048BBDE8F88F2DE9F843054600F5EF388B
:1012F0001C4617460E461A4608F5C47105F56F39A7
:1013000000F0CEFB08F5F87005F5B328224609F584
:101310005E7100F0C5FB224608F5ED6109F57870B5
:1013200000F0BEFB05F5EF21224608F5FA6001F555
:10133000EB6100F0B5FB2146284607EB8404FFF77C
:1013400064FF31463B46A3421CD005F5EE20A3EBDB
:10135000070ED0F8F46F00F57F6CD0F8F82F7644C4
:101360009CED007A7244D6ED007A67EE877AE1EC64
:10137000017AD2ED007A9CED007A67EE877AE3EC91
:10138000017AE0E7BDE8F88370B586B00376002304
:1013900001600A9E002104930446B36802AD4160D7
:1013A000C16080ED040AC0ED050A42763BB102221D
:1013B000314628469847F3680593B36804936A4614
:1013C00004F11C0395E8030082E8030093E803009E
:1013D00085E8030092E8030083E80300049B2846A5
:1013E000626A6362059B0492A26AA3620592FFF798
:1013F00056FB237E052B1CBF0123A37606B070BDD0
:101400002DE9F04F00F5EE2604469B461068314B5F
:101410000F46C6F8F40F87B0C6F8FC3F00F5EA1394
:10142000556803F6FF322C49DDF84880521BC6F898
:10143000F85F8A42DDE910A941D9284A002113F05A
:1014400007FA264A0021284613F002FA5946204698
:1014500000F01EFA04F5EF30514602AD00F5F870C9
:1014600000F016FA04F56F30494600F5787000F088
:101470000FFA04F5B320414600F5FA6000F008FACF
:10148000174B002204F5EF200593F7EE000A154BE9
:101490003946C6F8C02F00F2C4709FED130A0493BA
:1014A000042300950294FFF76FFF2846FFF7F7FA31
:1014B00004F5F02007B0BDE8F04F12F06BBE03F565
:1014C0004063002240F8042B834245F8042BF8D1F6
:1014D000BCE700BF00530700FE973A00004C1D0018
:1014E000410F049069100490000000002DE9F04FB6
:1014F0002DED028B89B09FED6A8A00F5EF3A044624
:1015000002AF04ADB0EE480A0E46F7EE000A04F54D
:101510006F3904F5B32804F5EF2B87E80C00614B15
:10152000002204900AF5E07007935F4B0095069344
:101530009DF80830FFF728FF2846FFF7B0FA5B4B0D
:10154000B0EE480A31460793F7EE000A584B0022E6
:1015500009F56C70009506939DF850300494FFF7E0
:1015600013FF2846FFF79BFA524BB0EE480A31466C
:101570000793F7EE000A504B002208F5F46000953F
:1015800006939DF858300494FFF7FEFE2846FFF7B7
:1015900086FA4A4BB0EE480A31460793F7EE000A46
:1015A000474B00220BF5F260009506939DF86030E2
:1015B0000494FFF7E9FE2846FFF771FA414BB0EEBD
:1015C000480A31460793F7EE000A3F4B00220AF51E
:1015D000C8700095069305230494FFF7D5FE2846AE
:1015E000FFF75DFA394BB0EE480A31460793F7EE44
:1015F000000A374B002209F5607000950693052319
:101600000494FFF7C1FE2846FFF749FA314BB0EECC
:10161000480A31460793F7EE000A2F4B002208F5DF
:10162000EE600095069305230494FFF7ADFE28466F
:10163000FFF735FA294BF7EE000A31460793B0EE73
:10164000480A274B00220BF5EC6000950693052312
:101650000494FFF799FE2846FFF721FA204604F587
:10166000E83497E8060000F047F914AB0AF5F87083
:1016700093E8060000F040F909F57870DDE91612EC
:1016800000F03AF908F5FA60DDE9181200F034F9D3
:10169000012384F8AA3F09B0BDEC028BBDE8F08FAE
:1016A00000000000510F0490551004905F0F04904B
:1016B000411004906D0F04902D1004907D0F049044
:1016C000191004908D0F0490051004909B0F049046
:1016D000F10F0490A90F0490DD0F0490B90F04904E
:1016E000C90F0490837E13B50446002B37D00068E1
:1016F000217E183003F0C0F9D4ED017A94ED027A1E
:1017000077EE876AB4EEE60AF1EE10FA06DC77EEC1
:10171000C77AB4EEE70AF1EE10FA20D5637E84EDC5
:10172000010A3BB1012B10D0E3680193636A8BB9C6
:1017300012F039FDD4ED047A94ED057A37EE677A2C
:10174000E0EE077AC4ED037AEEE720EE000AD4ED6E
:10175000047AF1E7A36A01A904F11C00984702B0DA
:1017600010BD38B5044600F022F904F5EF3505F553
:10177000E070FFF7B7FF05F5C870FFF7B3FF05F599
:10178000F87004F56F3500F012F905F56C70FFF78D
:10179000A9FF05F56070FFF7A5FF05F5787004F562
:1017A000B32500F004F904F5EF2405F5F460FFF724
:1017B00099FF05F5EE60FFF795FF05F5FA6000F07B
:1017C000F6F804F5F260FFF78DFF04F5EC60FFF723
:1017D00089FF04F2C470FFF785FF38BD012A02D1EA
:1017E000016000207047022A04BF0B680360F8E71D
:1017F000012A02D1016000207047022A04BF0B6851
:101800000360F8E770B588B016460446ADF80410DA
:1018100004AD019902F03CFE00230693B3683BB18E
:101820000222314628469847F3680793B368069327
:1018300002AA04F1100395E8030082E8030093E88C
:10184000030085E8030092E8030083E80300069B99
:101850002846A269A361079B0692E269E3610792A9
:10186000FFF71DF908B070BD10B5044602F02AFE5E
:10187000237963B1A37A802B09D1A3690BB912F044
:1018800092FCE36904F11000BDE81040184710BD58
:1018900038B5022300250370012305610373134B40
:1018A000C3650B6803F5EA1243654C6802F6FF3125
:1018B0008465091BC0E901550D4881420BD92946B1
:1018C0000C4A184612F0C4FF29462046094ABDE8D2
:1018D000384012F0BDBF02F54062002143F8041BFE
:1018E0009A4244F8041BF8D138BD00BF00530700EA
:1018F000FE973A00004C1D0010B588B09FED180A05
:10190000044602AB8DED010A83E80600154B04AADC
:101910009DF80A100793144B0490143006939DF819
:10192000093043EA0121FFF76DFF04A8FFF7B7F87C
:101930000E4B9DF80C1004AA079304F134000C4BD5
:101940009DED010A06939DF80B30049443EA0121B2
:10195000FFF758FF04A8FFF7A2F808B010BD00BFBA
:1019600000007A440D1A0490F11704902F1A049085
:10197000DD17049037B5044660300D46019200F043
:10198000A7FE04F59B40019A29461C3000F08AF915
:1019900004F599402946643000F0E2FA04F59C40D1
:1019A0002946543003B0BDE8304000F0E1BF10B527
:1019B00004461430FFF758FF04F13400FFF754FFDA
:1019C00004F1600000F005FE04F59940643000F079
:1019D00048FA04F59B401C3000F0D7F804F59C4011
:1019E000BDE81040543001F021B8037833B1013B19
:1019F000012B08D90023C0E901337047022303708B
:101A000043680361F6E700230370F3E70068FFF71C
:101A1000ECBF0378012B08D013F0FD0F01D1012397
:101A200003700023C0E9013370470223F8E7006820
:101A3000FFF7EFBF4368C26D934234BF0133002309
:101A400043607047037833B9436813B90023836058
:101A50007047013BFBE7012BFAD18368026993428F
:101A6000F4D20133F3E72DE9F04104781E46ACB916
:101A70000F4690462146B14210D045680131446D71
:101A800057F8043B826D04EB850402EB850223606A
:101A900058F8043B1360FFF7CDFFECE7BDE8F08199
:101AA0000378022B70B516461DD00024B44214D022
:101AB0008268456D05EB82052B680D6805EB840592
:101AC0002B60836D03EB82031A684B6803EB84037E
:101AD00001341A60FFF7B6FFE8E722466030BDE840
:101AE000704000F031BD70BD0A6803681A65704728
:101AF0000A680368C3F8AC207047012A02D101606C
:101B000000207047022A04BF0B680360F8E7012A2F
:101B100002D1016000207047022A04BF0B680360F5
:101B2000F8E7012A02D1016000207047022A04BFB1
:101B30000B680360F8E700000B680021026810B52D
:101B4000064CD2F8B000A342D2F8B420016028BFFE
:101B5000234683601160936010BD00BF7FA903001E
:101B60000123D0F8B02041F2883180F820304FF0C6
:101B70007C5310B50024036591601460D0F8B42044
:101B800014609160C0F8AC3010BD13B5044602F08B
:101B900099FC237953B1A37A802B07D1A3690BB9A0
:101BA00012F001FBE36904F11000984704F12400EE
:101BB000FFF798FD94F86E3043B3606D94F86C10A5
:101BC000183002F059FFD4ED167A94ED177A77EEBB
:101BD000876AB4EEE60AF1EE10FA06DC77EEC77A11
:101BE000B4EEE70AF1EE10FA10D594F86D3084EDFA
:101BF000160A9BB1012B0FD0236E0193A36F002B0C
:101C0000CED0E36F01A904F17000984704F1800081
:101C1000FFF768FD02B010BD20EE000AD4E91923D9
:101C20009B1A07EE903AB8EE677A07EE902AF8EE24
:101C3000677AE0EE077AFCEEE77AC4ED187ADBE724
:101C400013B50B4602466C46D0E9000184E8030058
:101C500093E8030082E8030094E8030083E80300AC
:101C600002B010BD30B5002385B004460D46029386
:101C70008B6833B1022268469847EB680393AB68E0
:101C8000029321466846FFF7DBFF029BA268684685
:101C9000A360039B0292E268E3600392FEF7FFFEFB
:101CA00005B030BD2DE9F0410446002510684FF025
:101CB0000108174688B00E46C4F8B0002946444AC9
:101CC000C0E901580C3012F0C3FD7868404A29463B
:101CD000C4F8B4004FF07E57C0E901580C3000251D
:101CE00012F0B6FD3B4B04A904F1400007933A4BB8
:101CF000666206930323A562A38725636563A763D2
:101D00000494FFF7AFFF94F83C3004A8052B18BFEC
:101D100084F83E804FF00108FEF7C1FE2F4B42F2DF
:101D200010726946039304A82D4BA2660222029307
:101D300000236665A565A4F86C8006930094C4E949
:101D40001833FFF7E4FE039B04F1700104A8079326
:101D5000029B0693FFF774FF069B04A8A26FA3677C
:101D6000079B0692E26FE3670792FEF798FE94F8EE
:101D70006C306846052B18BF84F86E80FEF78FFE26
:101D8000184B04A904F19C000793174BC4F880601A
:101D900006930223C4F88450A4F89830C4F88C50F9
:101DA000C4F89050C4F894700494FFF75BFF94F863
:101DB000983004A8052B1CBF012384F89A30FEF745
:101DC0006EFE204608B0BDE8F041FFF7C9BE00BF77
:101DD00000A60E00E91A0490231B0490391B0490FE
:101DE0000F1B0490F11A0490FB1A04900A68036810
:101DF0001A6570470A680368C3F8802070470A684C
:101E00000368C3F8B0207047012A02D101600020A6
:101E10007047022A04BF0B680360F8E7012A02D169
:101E2000016000207047022A04BF0B680360F8E7D6
:101E3000012A02D1016000207047022A04BF0B680A
:101E40000360F8E7012380F820304FF07C530365EE
:101E5000C0F880300023C0F8B0300023C0F8B430A0
:101E6000704713B5044602F02DFB237953B1A37AD2
:101E7000802B07D1A3690BB912F095F9E36904F13E
:101E80001000984704F12400FFF72CFC04F15400E3
:101E9000FFF728FC94F89E3063B3D4F8840094F8DC
:101EA0009C10183002F0E8FDD4ED227A94ED237AEC
:101EB00077EE876AB4EEE60AF1EE10FA06DC77EE0A
:101EC000C77AB4EEE70AF1EE10FA13D594F89D3014
:101ED00084ED220A93B1012B0ED0D4F890300193F7
:101EE000D4F8A830002BC7D0D4F8AC3001A904F145
:101EF000A000984702B010BD20EE000AD4E92523C7
:101F00009B1A07EE903AB8EEE77A07EE902AF8EEC1
:101F1000E77AE0EE077AFDEEE77AC4ED247ADCE7B3
:101F200030B5002385B004460D4602938B6833B16B
:101F3000022268469847EB680393AB6802932146F8
:101F40006846FFF77DFE029BA2686846A360039B7C
:101F50000292E268E3600392FEF7A1FD05B030BD96
:101F6000F0B53D4B89B000254FF07E5707930446EE
:101F70003A4B0E46416204A906930223856205632B
:101F800045638763838704904030FFF7C9FF94F867
:101F90003C3004A8052B1CBF012384F83E30FEF71B
:101FA0007EFD2F4B04A904F1700007932D4BA5650E
:101FB0000693052325666566A4F86C306665A766FA
:101FC0000494FFF7ADFF94F86C3004A8052B1CBFF8
:101FD000012384F86E30FEF762FD234BC4F888506D
:101FE000032203930125214B6946C4F8982004A8D5
:101FF000029300230222C4F88460A4F89C50069344
:102000000094C4E92433FFF7FFFE039B04F1A00111
:1020100004A80793029B0693FFF712FE069B04A8F1
:10202000D4F8A820C4F8A830079B0692D4F8AC20B6
:10203000C4F8AC300792FEF732FD94F89C30684645
:10204000052B18BF84F89E50FEF729FD204609B0E5
:10205000BDE8F040FFF7F6BEED1D0490311E049080
:10206000F51D04901D1E0490FF1D0490091E049090
:1020700003680A6803F598439A62704703680A6820
:1020800003F597435A607047012A02D1016000208E
:102090007047022A04BF0B680360F8E7012A02D1E7
:1020A000016000207047022A04BF0B680360F8E754
:1020B000012A02D1016000207047022A04BF0B6888
:1020C0000360F8E773B500F58044054604F5366310
:1020D000D3ED007AF4EE407AF1EE10FA03D194F8E1
:1020E000243B002B62D0F0EEC07A04F53663B2EEEA
:1020F000086A0C2283ED000AB5EEC00ABCEEE77A4E
:102100009FED2B0A04F61C3605F59640F1EE10FA09
:102110008DED017A87EE867A9DF8043000F130006B
:10212000B3FBF2F102FB113341F2E22252FA83F3E4
:1021300005EB8303FCEEC77AD3ED006ACCBF012325
:102140000023BFEE007A84F82C3BCDED017A9DF898
:102150000430013307EE903A04F62833F8EEE77ABC
:10216000A6EEA77AD3ED007AD4F8203B67EE277A63
:1021700007EE103AB8EE477AC7EE876AF5EEC06A06
:10218000F1EE10FA58BFB0EE660A86ED000A11F0C3
:10219000D3FF05F5964096ED000A403011F0CCFFD4
:1021A00094F8243B13B1002384F8243B02B070BDA3
:1021B0000000000091ED000A0068B8EEC00A20306F
:1021C000FFF780BF044B186880EA403080EA504037
:1021D00080EA4010186070476C00002473B500F569
:1021E000804501264FF07C52044605F628432030F6
:1021F00085F8F86BB2EE080A1A6004F5974401906E
:10220000FFF760FF05F68433002201981A604FF44F
:10221000166394ED000AC5F8403B85F8446B02B0A4
:10222000BDE87040FFF74EBFFDEEC07A40F65F1389
:10223000B8EEE77A17EE902A9A4294BF82608360E4
:1022400030EE470A80ED000A7047D0E901324FF4C2
:10225000166190ED007A1344B3FBF1F201FB1232E8
:10226000013300EB820292ED030AB3FBF1F201FBB2
:10227000123300EB8303D3ED037A77EEC07AA7EE37
:10228000870A70472DE9F047054600F596400E464F
:10229000303005F5804405F597472DED068B11F09C
:1022A0005BFF05F59640F0EE408A403011F054FF98
:1022B00004F53763B0EE408AD3ED007AF4EEE87AA5
:1022C000F1EE10FA38DD04F664334FF0FF089FEDAD
:1022D000999AD3ED009AFFF775FF04F66832B0FBC8
:1022E000F8F3C3EB0323C01AD4F8203B07EE900A9F
:1022F000F8EEE77A87EE897A67EE297A07EE103AE8
:10230000BBEEEF7A67EE877AC2ED007AFFF75AFFED
:102310009FED897AB0FBF8F8C8EB0828A0EB08001D
:1023200007EE900AF8EEE77AC7EE896ADFED837A66
:10233000E6EE877AC7ED007A04F67433D3ED007ABF
:10234000F4EEC87AF1EE10FA3ADD04F664334FF099
:10235000FF089FED789AD3ED009AFFF733FF04F65C
:102360006C32B0FBF8F3C3EB0323C01AD4F8203B64
:1023700007EE900AF8EEE77A87EE897A67EE297A17
:1023800007EE103ABBEEEF7A67EE877AC2ED007A7D
:10239000FFF718FF9FED687A04F68433B0FBF8F876
:1023A000C8EB0828A0EB080007EE900AF8EEE77AE1
:1023B000C7EE896ADFED617AE6EE877AC3ED007ACF
:1023C00004F6783304F66832D7ED006A04F66C310F
:1023D000D3ED007AD2ED009A04F67C3239EEE77A3A
:1023E000E6EE877A91ED007AC3ED007A04F6843345
:1023F000D2ED007AD3ED006A04F5376337EE677AE1
:10240000E6EE877AC2ED007AC3ED008A04F67433F3
:1024100083ED008A94F82C3B2BB1F7EE007A77EE2F
:10242000E88A37EEC88AD4F8203B04F65C3704F615
:10243000583A9FED43AA013B04F5356928EE8A0A14
:1024400004F6543807EE903AF8EE677A27EEA89A29
:1024500067EE887A8AED009AC7ED007A12F08CF860
:1024600089ED000A28EE0A0A9FED368A12F084F8F8
:102470006A684FF4166188ED000A05EB8203D6F80E
:1024800000C002F65F1239EE890AC3F80CC005F5E8
:102490001656B2FBF1F301FB13220C366A6005F508
:1024A0000052D2F8903502EB830003F65F1300F27E
:1024B0009450C0F804C0B3FBF1F001FB1033284680
:1024C000C2F89035FFF7B0FE04F66C3397ED000AC2
:1024D0003046D3ED007A30EE270AFFF7A5FE04F66A
:1024E00078339AED000A04F67C34D3ED007A28465E
:1024F00030EE270AFFF798FED4ED007A97ED000A38
:10250000304630EE270AFFF78FFE2846FFF79DFE84
:10251000D9ED007A3046A0EE278AFFF796FED8ED77
:10252000007AA0EE278AB0EE480ABDEC068BBDE823
:10253000F08700BF00007F436F12833A17B751390D
:10254000DB0F4940000000002DE9F74307460C4629
:10255000904606460025454538D0216807F1200001
:102560004FEA850901EB85010190FFF78BFE616859
:10257000A6EC010A013549440198FFF783FE07F5EF
:1025800098412068B7EE007A86ED030A16ED016ADD
:102590004844D1ED0A7A636877EE676A67EE867A17
:1025A00090ED006A4B44E6EE267AC0ED007AD1ED5C
:1025B0000A7AD6ED036A37EE677A67EEA67AD3ED2C
:1025C000006AE6EE877AC3ED007AC4E703B0BDE89F
:1025D000F08337B5054600F5974005F580447C301B
:1025E000FFF780F894F8463C002B4AD0D4F82C0C26
:1025F00094F8441C183002F03FFA04F62C43D3ED53
:10260000017A93ED027A77EE876AB4EEE60AF1EE8C
:1026100010FA06DC77EEC77AB4EEE70AF1EE10FAAC
:102620002FD504F62C4383ED010A94F8453C5BB1A9
:10263000012B07D0D4F8383C0193D4F8503CCBB9E7
:1026400011F0B1FD20EE000AD4F83C2CD4F8403C47
:102650009B1A07EE903AB8EEE77A07EE902AF8EE6A
:10266000E77AE0EE077AFDEEE77A17EE903AC4F8E3
:10267000383CDFE705F59840D4F8543C01A94830D0
:10268000984705F598405830FFF72CF803B030BD57
:1026900030B5002385B004460D4602938B6833B1F4
:1026A000022268469847EB680393AB680293214681
:1026B0006846FFF7C5FA029BA2686846A360039BC1
:1026C0000292E268E3600392FEF7E9F905B030BDDB
:1026D0002DE9F04F00F580460025834A002706F6D5
:1026E000483300F5974A056089B0056104464560A6
:1026F0008846456100F1200985600AF1280A856154
:10270000C560C56186F8447B1A6006F63C33774A9B
:102710001A6007EE907A0137B0EE000AF8EEE70A89
:10272000F2EE087AC0EEA70A11F092FD0C2FAAEC87
:10273000010AEED106F537634FF41652002104F179
:102740002C001D60012712F083F84FF0000A06F6F6
:102750005433DFF894B109F596409FED650AC4E95A
:1027600009A7C3F800B006F65C3330301D6011F0E5
:10277000E3FC4FF4165206F674335146A0181D6060
:10278000383012F065F804F500535A4A09F59640BE
:10279000C3F8B0A5C3F8B47506F664339FED540AC8
:1027A0004030C3F800B006F66C331A6011F0C4FC78
:1027B0004FF41663484686F84C7BC6F8403B04F558
:1027C000974386F8447B4FF07E5993ED000AFFF75C
:1027D00079FC06F6843304F5984004A91D60464B45
:1027E0001830C6F8FC8B0793444B0494069306F606
:1027F000FC335D60DD601D61C3F81490A6F8147CA5
:10280000FFF746FF96F8143C052B6AD104A804F59F
:102810008046FEF744F93A4B6FF00B02C6F82C8C59
:1028200003936946374B04A80094029306F62C43A1
:102830005D600023C6F83C2C0C22C6F8383CC6F874
:10284000402C02220693A6F8442CFFF727FC039B9A
:1028500004F5984104A80793029B48310693FFF7BB
:10286000EFF9069B04A8D6F8502CC6F8503C079BFD
:102870000692D6F8542CC6F8543C0792FEF70FF98E
:1028800096F8443C6846052B1CBF012386F8463C5D
:10289000FEF705F91C4BC6F8588C04F598400793D1
:1028A00004A91A4B74300494069306F658435D60ED
:1028B000DD601D61C3F814900323A6F8703CFFF798
:1028C000E7FE96F8703C04A8052B1CBF012386F890
:1028D000723CFEF7E4F8204609B0BDE8F04FFFF780
:1028E0007DBC86F8167C91E700803B470000A04045
:1028F00000004842DB0F494071200490B120049051
:10290000B52104909D2004907D200490892004909E
:10291000012A02D1016000207047022A04BF0B681F
:102920000360F8E7012A02D1016000207047022A03
:1029300004BF0B680360F8E7012A02D101600020A0
:102940007047022A04BF0B680360F8E7006891ED46
:10295000000A203000F052BA006891ED000A2030E1
:1029600000F03EBA006891ED000A203000F050BA45
:10297000F0B5264B89B000F5C8379FED250A04ADA8
:102980000793244B0446F7EE000A0022049007F157
:1029900058000693022300950E468DED030AFEF7BC
:1029A000F3FC2846FEF77BF81B4B9DED030A3146EE
:1029B0000793F7EE000A194B002207F1B0000095CB
:1029C000069301230494FEF7DFFC2846FEF767F820
:1029D000134B9DED030AF7EE000A07930022114BFB
:1029E000314607F1DC000095069303230494FEF7BB
:1029F000CBFC2846FEF753F89FED0B0A04F12000AC
:102A000009B0BDE8F04000F00BBA00BF65290490A2
:102A100000000000392904905929049025290490C8
:102A20004D29049011290490CDCC4C3F10B500F5F0
:102A3000C83404F15800FEF755FE04F1B000FEF76B
:102A400051FE04F1DC00FEF74DFE10BDF6EE007AFB
:102A500090ED0A7A70B5B4EEE77A0446F1EE10FA1A
:102A60001BDA00F12C0500F58676284600F0E5F922
:102A700005F1E0001C3500F0E0F9B542F5D104F5B0
:102A8000F67504F50B74284600F0F6F905F14000E0
:102A9000103500F0F1F9AC42F5D170BDB6EE007A18
:102AA000D0ED097A90ED056AF0EE476AF8B5E7EEE9
:102AB000876A00F12C05044600F586772E4666EEFF
:102AC000266AC0ED066AF7EE006A76EEE77A67EEF0
:102AD000877A67EE867AC0ED077AD0ED0A7AF4EE4F
:102AE000C77AF1EE10FAB3BF43680023C0ED026A63
:102AF0008360B7BFC368036103610F4B0360304657
:102B000094ED020A00F0AFF906F1E0001C3694EDF6
:102B1000020A00F0A8F9BE42F1D1284694ED040A59
:102B200000F098F905F1E0001C3594ED040A00F07E
:102B300091F9BD42F1D1F8BD8FC2753C2DE9F74F37
:102B400000F12C09044600F586784D4628461C35D0
:102B500000F06BF94545F9D1454604F5F67728466E
:102B60001C3500F062F9AF42F9D13D4604F50B7611
:102B70002846103500F07AF9B542F9D1354604F50A
:102B80001B7A2846103500F071F95545F9D12946D0
:102B9000484640F25C4204F50F7B00F04BF904F527
:102BA0009E51404640F273421C3104F5037A00F016
:102BB00041F904F5165104F1480040F2A4422831CD
:102BC00004F5137900F036F904F5605104F59470BA
:102BD00040F2BB42383104F5077800F02BF904F5D8
:102BE000964104F1640040F2FD42243104F517756A
:102BF00000F020F904F5BE4104F5A27040F2145231
:102C0000183100F017F904F5E64104F1800040F2B4
:102C10004C52683100F00EF904F5084104F5B0702B
:102C200040F26352983100F005F904F51E4104F1B9
:102C30009C0040F28E52243100F0FCF804F534413F
:102C400004F5BE7040F2A5525C3100F0F3F804F5D3
:102C50004A4104F1B80040F2D352F03100F0EAF8F2
:102C600004F5624104F5CC7040F2EA523C3100F0C8
:102C7000E1F804F5794104F1D40040F21562E43141
:102C800000F0D8F804F5893104F5DA7040F22C62CE
:102C9000383100F0CFF804F5953104F1F00040F23E
:102CA0005162E83100F0C6F804F5A23104F5E8708D
:102CB0004FF4CD622C3100F0BDF804F5AE3138464A
:102CC0004FF40B7201F5E67100F0D3F804F5B3315F
:102CD000304640F243227C3100F0CBF804F5FE731D
:102CE00004F5B73140F2B9121846019301F5C471E9
:102CF00000F0BFF804F5BB3158464FF4E8726C3170
:102D000000F0B7F804F5BE31504640F2551201F517
:102D1000D67100F0AEF804F5C13148464FF4B672F2
:102D200001F5807100F0A5F804F5C4314046E122B8
:102D3000B03100F09EF804F5C631F822284634314F
:102D400000F097F83846B6EE000A00F0A2F83046D8
:102D5000B6EE000A4FF07E5600F09BF8019BB6EEEF
:102D6000000A184600F095F85846B6EE000A00F042
:102D700090F85046B6EE000A00F08BF84846B6EEE2
:102D8000000A00F086F84046B6EE000A00F081F82E
:102D9000B6EE000A2846002500F07BF82046666162
:102DA000FFF77CFE0C4B20466360FFF777FE0B4B72
:102DB00020462562E360FFF771FE20466662FFF75A
:102DC0006DFE2046A562FFF769FE2046FFF73EFE36
:102DD000204603B0BDE8F08F3D0A573FCDCC4C3EB6
:102DE0009FED047ADFED047AE0EE077AC0ED017A18
:102DF000FFF754BE295C8F3E3333333FDFED037A58
:102E000020EE270A80ED030AFFF748BECDCCCC3E6A
:102E1000F0EE087A20EE270A80ED050AFFF73EBEA5
:102E200030EE000A80ED080A70470022426000225E
:102E300082617047C0E90412704710B500234469ED
:102E40009C4206DD0269002102EB8302013311601E
:102E5000F6E710BDF7EE007A80ED020A37EEC00A01
:102E600080ED030A704780ED000A70470022C260BF
:102E70007047C0E90112704710B5002384689C4276
:102E800006DD4268002102EB830201331160F6E7A0
:102E900010BD80ED000A7047704700BF143001F08C
:102EA00005BA00BF38B500F1140504462DED028BBC
:102EB000284601F0B7F9284601F0B0F92846B0EEEF
:102EC000408A01F099F9D0ED007AF8EE677A88EE41
:102ED000277ABDEC028B84ED0E7A38BD38B500F14F
:102EE000140504462DED028B284601F089F9284689
:102EF00001F094F92846B0EE408A01F07DF9D0ED5A
:102F0000007AF8EE677A88EE277ABDEC028B84EDC2
:102F10000E7A38BDF0B5032399B00027012512932E
:102F200006462C4B09A81595CDE90E7340F20453C3
:102F3000ADF84030284BCDE91357099301F0A4FEBA
:102F400009A801F07DFF002836D1244B04AF0446C8
:102F50000090CDF842301023394604958DF820308A
:102F60001F4BCDE91650CDE906506846059302F097
:102F7000F5F80823009A01A909A8ADF804508DF8C6
:102F8000064009940295039300F0E4F800230EA98B
:102F900038463024049302F0ABFE03224FF07E53F8
:102FA00009A906F114000B930C93CDE90942049A88
:102FB00001F0EAF819B0F0BD40F60132074B169760
:102FC00004AFADF824200998CDF84230179500F0F1
:102FD00081F8DBE704020404030300010406040390
:102FE0000704010B2DE9F04304462DED028B83B05D
:102FF000002948D0012140F2011200230091ADF8D0
:1030000004208DF80630304A0126304B271D304908
:1030100004F12908626040F20272A36040F6066380
:10302000E16004F125092682A4F8252084F82760B0
:10303000A4F8293084F82B6003F0E8F969460546C6
:1030400048B304F130008DF8066003F03DF9072D18
:1030500034D104F114052046FFF75CFF284601F047
:10306000DDF82846B0EE408A01F0C6F8D0ED007ACF
:10307000F8EE677A88EE277A84ED0E7A03B0BDEC1D
:10308000028BBDE8F08340F2011300918DF8061029
:10309000ADF80430B7E704F1300003F015F9394614
:1030A000204602F0A5FA484601F0EEFD404601F048
:1030B000EBFD04F1120000F077F9CAE7394620462B
:1030C00002F096FAC5E700BF0508050905070506E1
:1030D000050A060610B584B003460124ADF80400C5
:1030E00003A8ADF80C30ADF80E4001F0CDFD21463F
:1030F00003A801F0B3FE204603F01AF8002103A84C
:1031000001F0ACFE204603F013F8214603A801F0BD
:10311000A5FE04B010BD00BF10B5C2F3002384B0FB
:103120000C46017C8DF80D2043EA4402FA24022368
:103130008DF80C2003AA009402F0A6F818B101241F
:10314000204604B010BD04460A2002F0F1FF2046DC
:1031500004B010BD034670B543F8042B044684B098
:1031600007C983E80700A37983B91A210B461E22F9
:10317000FA2523742046ADF80C20022303AA0095FB
:1031800002F082F828B1012004B070BD1B210B466B
:10319000EDE70A2002F0CCFF4FF4B852009502236D
:1031A000ADF80C20204603AA217C02F06DF800281F
:1031B000E9D10A2002F0BCFF41F20272009502231D
:1031C000ADF80C20204603AA217C02F05DF800280F
:1031D000D9D10A2002F0ACFF042200950223ADF8F9
:1031E0000C20204603AA217C02F04EF80028CAD108
:1031F0000A2002F09DFF062200950223ADF80C2064
:10320000204603AA217C02F03FF80028BBD10A2007
:1032100002F08EFF41F2082200950223ADF80C2047
:10322000204603AA217C02F02FF80028ABD10A2007
:10323000064602F07DFF0095022303AA217C20466A
:10324000ADF80C6002F020F800289CD1304602F066
:103250006FFF009522790C232046002A8DF80C3050
:1032600003AA4FF0020314BF622142218DF80D1012
:10327000217C02F009F8002885D1304602F058FF81
:103280002279D4E902310B43DBB20AB943F040039F
:1032900062790AB143F020030E22FA258DF80D3031
:1032A0002046009502238DF80C2003AA217C01F012
:1032B000EBFF00287FF467AF0A2002F039FF1022ED
:1032C00000950223ADF80C20204603AA217C01F0D2
:1032D000DBFF00287FF457AF0A2002F029FF1221FC
:1032E00000950223ADF80C1003AA217C204601F0C2
:1032F000CBFF00287FF447AF0A2002F019FF01221C
:1033000009212046FFF708FF003818BF01203BE7DE
:10331000F0B5102387B0234C012200250126002799
:1033200002A920460195CDE902234FF48052CDE950
:1033300004670AF0ADFA642003F058FE02A94FF4C6
:1033400080522046CDE9046702261027CDE90267A6
:103350000AF09EFA0322102302A92046CDE9022397
:1033600000230422CDE904234FF480520AF090FA9E
:1033700040F23223042202A9019310232046CDE912
:103380000223019A012305924FF4805204930AF01C
:103390007FFA40F6060120460AF09AFA284607B05E
:1033A000F0BD00BF488807241C4B00221C494FF089
:1033B000400C30B5054689B00220596007219A605B
:1033C0001A620124DA620A224FF4006EDC6006926F
:1033D0002022CDE9000104200821CDE902010320CB
:1033E0001021CDE9040108206946C3E904024FF425
:1033F000C072181DC3E906C24FF48052C3E909E246
:103400000AF01CFA38B92846FFF782FF003818BFC7
:10341000012009B030BD204609B030BD44880724E2
:1034200040410052614A0021D0B513688EB00A9124
:10343000002B40F0B9805E4B01214FF683700C24C5
:1034400011600221D3F8D4200026032742F48052D1
:10345000C3F8D420D3F8D42002F480520092009A0A
:10346000D3F8E02042F01002C3F8E020D3F8E020C7
:1034700002F010020192019AD3F8E02042F04002DB
:10348000C3F8E020D3F8E02002F040020292029A52
:10349000D3F8E02042F00802C3F8E020D3F8E0209F
:1034A00002F008020392039AD3F8E02042F48072FB
:1034B000C3F8E020D3F8E02002F480720492049A6A
:1034C000D3F8E02042F08002C3F8E020D3F8E020F7
:1034D00002F080020592059AD3F8E02042F0200223
:1034E000C3F8E020D3F8E02002F020020692069A0A
:1034F000D3F8E02042F00402C3F8E020D3F8E03033
:103500000C9403F0040307930323079A0B93CDE96C
:10351000080108A9274805F0EFFB48F237120223FB
:1035200008A925480C94CDE90823CDE90A6705F0E0
:10353000E3FB4CF20372022308A920480C94CDE966
:103540000823CDE90A6705F0D7FB40F2FF620223AA
:1035500008A91B480C94CDE90823CDE90A6705F0BA
:10356000CBFB4FF60C72022308A916480C94CDE948
:103570000823CDE90A6705F0BFFB4FF63F0202239F
:1035800008A911480C94CDE90823CDE90A6705F094
:10359000B3FB2022022308A90A480C94CDE90A674C
:1035A000CDE9082305F0A8FB0EB0D0BD4088072464
:1035B000004402580010025800180258000C02582B
:1035C00000200258001C0258001402582DE9F04F48
:1035D000DFF8108406460D46144608F118002DED5C
:1035E000028B89B000AF02F07BFCD8F8183073B3BF
:1035F000D8F81C30D8F80490002B43690BBF4FF06B
:10360000080A4FF0100A4FF0020B4FF0040BB9F10B
:10361000000F2AD0A200EA46012B02F1070222F095
:103620000702ADEB020D6846ADEB020D694600F0F6
:103630003F81022B00F0D680002B6FD02246C84776
:10364000D5462437BD46BDEC028BBDE8F08FD8F8D7
:103650001C30002BF5D0D8F804904FF0080A4FF03A
:10366000020B4369B9F1000FD4D1FB61D8F80030E7
:10367000BB61002BE5D0D54802F0A4FC6B46BBF142
:10368000020F786108EE103AFB6900F083816A4608
:103690005146A2EBC40295466200EA46B2FBFBF239
:1036A000AAEBC40085460AEB8200EE46F861ADEB5A
:1036B000010DF8690EEB820CC7F810C0EC46ADEBBB
:1036C000010D00EB8201CCF80400CCF8081001EBEE
:1036D00082013869E946CCF80C1000EB8201CCF885
:1036E00000A001EB8202C9E900E0C9E90212012B46
:1036F00000F06483022B00F06C82002B00F08081CC
:10370000620849466046BB69984718EE103A24376C
:103710009D46BD46BDEC028BBDE8F08F002C8DD0E0
:103720001A46D8ED0C6A9FEDB27A8446331D36F9FD
:1037300022E00CF1080C07EE90EA33F922E00232A5
:10374000F8EEE77A944267EE877A67EEA67A4CED58
:10375000027A07EE90EAF8EEE77A67EE877A67EE8C
:10376000A67A4CED017AE2D8F9612246C847984E14
:10377000D8ED0D6A0020F9692B1D9FED9E7A9FED13
:103780009E6ADFED9E5A22E0F4EEC67AF1EE10FA60
:10379000C0F2C88447F6FE72D1ED017A45F82020C8
:1037A00066EEA77AF4EEC77AF1EE10FA40F2F080F6
:1037B000F4EEC67AF1EE10FAC0F2D58447F6FE7246
:1037C00043F820200230083184427FF639AFD1ED32
:1037D000007A66EEA77AF4EEC77AF1EE10FAD3D843
:1037E0003246D9E7002C3FF429AFD8ED0C6A844665
:1037F0009FED787A0022331D8E4656F822100CF188
:10380000080C07EE901A53F822100232F8EEE77A0D
:10381000944267EE877A67EEA67A4CED027A07EE5D
:10382000901AF8EEE77A67EE877A67EEA67A4CEDA3
:10383000017AE2D871462246C7F81CE0C847664EB6
:10384000D8ED0D6A0020F9692B1D9FED6A7A9FED76
:103850006A6ADFF894C120E0F4EEC67AF1EE10FA5D
:10386000C0F279843246D1ED017A45F8202066EE27
:10387000A77AF4EEC77AF1EE10FA40F28780F4EE00
:10388000C67AF1EE10FAC0F25E84324643F8202088
:103890000230083184427FF6D3AED1ED007A66EE75
:1038A000A77AF4EEC77AF1EE10FAD5D86246DAE7D5
:1038B000002C3FF4C3AED8ED0C6A86469FED477AE4
:1038C0004FF0000C331D56F82C200EF1080E82F438
:1038D0000002A2F5000207EE902A53F82C200CF10A
:1038E000020CF8EEE77A82F400026445A2F50002C9
:1038F00067EE877A67EEA67A4EED027A07EE902A97
:10390000F8EEE77A67EE877A67EEA67A4EED017AEF
:10391000D9D8F9612246C847314ED8ED0D6A00204A
:10392000F9692B1D9FED337A9FED336ADFF8BCC038
:103930001FE0F4EEC67AF1EE10FAC0F2FC833246D4
:10394000D1ED017A45F8202066EEA77AF4EEC77A29
:10395000F1EE10FA18D9F4EEC67AF1EE10FAC0F2D0
:10396000DA83324643F820200230083184427FF661
:1039700067AED1ED007A66EEA77AF4EEC77AF1EE83
:1039800010FAD6D86246DBE76246EBE762467DE78F
:10399000324615E7A100D6466208073121F007013B
:1039A000ADEB010DEA46ADEB010D6946ADEB0E0D39
:1039B0000AEB8200EC46ADEB0E0D01EB8202F861E2
:1039C000E946CCE900A0C9E9001290E698880724EE
:1039D0000280FFFF000000300082FF7F0000003403
:1039E00082FF7F007C880724007E00807E0080FFAD
:1039F0000000003804FF7FBF04FF7F3F00FEFF464A
:103A0000002C00F0C982BBF1020FD8F8242000F08E
:103A1000FA827969C7F8049002EB810E5FED0C5AC7
:103A20008A00DCF808100EF104007A611A46DCF80E
:103A30000C303B61331DD7F810903D61FD69C7E93B
:103A400002CB8C46834636F92210D8ED0C7A06EE6E
:103A5000101A33F9221006EE901A3EF92210B8EE31
:103A6000C66A07EE101AF8EEE66A3BF92210B8EEC5
:103A7000C77A26EE256A66EEA56A27EE257A26EE37
:103A8000276A66EEA76A27EE277A07EE901A510892
:103A90000232F8EEE77A0AEB8100944280ED006A88
:103AA00005EB810067EEA57AC0ED006A0CEB8100A2
:103AB00009EB810180ED007A98ED0C7A67EE877A48
:103AC000C1ED007ABFD8D7F804903D69D7E902CBA1
:103AD00060466208BB6949469847D8F82C307A6935
:103AE000D8ED0D6A1A441FED3D7A1FED3D6A2B1D7E
:103AF000904602F1040A5FED3F5A0022A84ED9E930
:103B000000EC51E0F4EEC67AF1EE10FAC0F2C78292
:103B100047F6FE7045F822000CEB0100D0ED007A6C
:103B200066EEA77AF4EEC77AF1EE10FA4BD9F4EE0E
:103B3000C67AF1EE10FAC0F2BA8247F6FE70BBF117
:103B4000020F43F822002BD0D9F808000844D0ED2A
:103B5000007A66EEA77AF4EEC77AF1EE10FA36D95B
:103B6000F4EEC67AF1EE10FAC0F2CD8247F6FE709E
:103B700048F82200D9F80C000144D1ED007A66EE35
:103B8000A77AF4EEC77AF1EE10FA1ED9F4EEC67AEF
:103B9000F1EE10FAC0F2AF8247F6FE714AF8221039
:103BA000023294427FF6B1AD51080EEB81008900DC
:103BB000D0ED007A66EEA77AF4EEC77AF1EE10FA4D
:103BC000A0D83046A6E73046B9E73146E6E73046AA
:103BD000CEE7002C00F0E081BBF1020FD8F82430D2
:103BE00000F0E1817A69DCF8081003EB820EC7F877
:103BF00004909300DFED6B5A0EF1040000227B610C
:103C0000DCF80C303B61331DD7F810903D61FD6945
:103C1000C7E902CB8C46834656F82210D8ED0C7AC1
:103C200007EE101A53F82210B8EEC76A07EE101A02
:103C30005EF82210F8EEC76A07EE101A26EE256A23
:103C40005BF82210B8EEC77A66EEA56A26EE276A00
:103C500027EE257A66EEA76A27EE277A07EE901AF6
:103C600051080232F8EEE77A0AEB8100944280EDC7
:103C7000006A05EB810067EEA57AC0ED006A0CEBE7
:103C8000810009EB810180ED007A98ED0C7A67EEF6
:103C9000877AC1ED007ABFD8D7F804903D69D7E99B
:103CA00002CB60466208BB6949469847D8F82C3079
:103CB0007A69D8ED0D6A1A449FED3E7A9FED3E6A0F
:103CC000131D9246DFF8E4C00022FB612B1D364E27
:103CD000D9E9008E4EE0F4EEC67AF1EE10FAC0F2A9
:103CE000FC81304645F822000EEB0100D0ED007A51
:103CF00066EEA77AF4EEC77AF1EE10FA49D9F4EE3F
:103D0000C67AF1EE10FAC0F2EF813046BBF1020F35
:103D100043F822002AD0D9F808000844D0ED007AF0
:103D200066EEA77AF4EEC77AF1EE10FA35D9F4EE22
:103D3000C67AF1EE10FAC0F2C98130464AF8220084
:103D4000D9F80C000144D1ED007A66EEA77AF4EEC2
:103D5000C77AF1EE10FA1ED9F4EEC67AF1EE10FA37
:103D6000C0F2AD813146F86940F822100232944227
:103D70007FF6CBAC510808EB81008900D0ED007ACA
:103D800066EEA77AF4EEC77AF1EE10FAA3D8604691
:103D9000A8E76046BAE76146E5E76046CEE700BFC0
:103DA0000280FFFF000000300082FF7F007E008065
:103DB0000000003404FF7FBF04FF7F3F002C00F0B1
:103DC000EB807A690021D8F82430C7F8109003EB13
:103DD000820ED7F81C909300FD610EF104021FEDD6
:103DE0000C6A7B61331D154656F821204808D8ED32
:103DF0000C6ABBF1020F82F40002A2F5000207EE8A
:103E0000902A53F8212082F40002B8EEE77AA2F556
:103E1000000227EE067A07EE902A0AEB8002F8EEFF
:103E2000E77A27EE267A67EE867A82ED007A09EB4A
:103E300080024FEA800067EEA67AC2ED007A27D0B2
:103E40005EF8212082F40002A2F5000207EE902A1B
:103E500055F8212082F40002B8EEE77AA2F50002BC
:103E600027EE067A07EE902ADCF80820F8EEE77ACB
:103E7000024427EE267A67EE867A82ED007A98ED84
:103E80000C7ADCF80C2067EE877A0244C2ED007AE7
:103E900002318C42A8D8D7F8109060466208BB69FE
:103EA0004946FD699847D8F82C307A69D8ED0D6AF3
:103EB0001A441FED407A1FED406A131D9246DFF849
:103EC000C4C20022FB612B1DAB4ED9E9008E4EE02F
:103ED000F4EEC67AF1EE10FAC0F2C580304645F82D
:103EE00022000EEB0100D0ED007A66EEA77AF4EE28
:103EF000C77AF1EE10FA49D9F4EEC67AF1EE10FA6B
:103F0000C0F2BF803046BBF1020F43F822002AD036
:103F1000D9F808000844D0ED007A66EEA77AF4EEEE
:103F2000C77AF1EE10FA35D9F4EEC67AF1EE10FA4E
:103F3000C0F2AE8030464AF82200D9F80C000144A5
:103F4000D1ED007A66EEA77AF4EEC77AF1EE10FAB8
:103F50001ED9F4EEC67AF1EE10FAC0F28B8031462B
:103F6000F86940F82210023294427FF6CEAB510835
:103F700008EB81008900D0ED007A66EEA77AF4EEB6
:103F8000C77AF1EE10FAA3D86046A8E76046BAE710
:103F90006146E5E76046CEE7224649466046BB6992
:103FA0009847FFF7B2BBC7F810B0002298ED0C6A33
:103FB000331DDFED726AD7F81CB0786956F822100D
:103FC00007EE901A53F82210B8EEE77A07EE901A2F
:103FD00051080232F8EEE77A27EE267A0AEB810ED4
:103FE00094420BEB810167EEA67A27EE067A67EE24
:103FF000867A8EED007AC1ED007ADFD88300D7F89B
:1040000010B07B614DE61A46C7F810B098ED0C6A07
:10401000331DDFED5B6AD7F81CB0786936F92210E2
:1040200007EE101A33F9221007EE901AB8EEC77A8D
:1040300051080232F8EEE77A27EE267A0AEB810E73
:1040400094420BEB810167EEA67A27EE067A67EEC3
:10405000867A8EED007AC1ED007ADFD88300D7F83A
:1040600010B07B6134E5F0EE675AFEEEE45A15EECF
:10407000900A34E7F0EE675AFEEEE45A15EE901A15
:104080006EE7F0EE675AFEEEE45A15EE900A3AE754
:10409000F0EE675AFEEEE45A15EE900A4BE767EE33
:1040A000A57AFDEEE77A17EE900A00B232E567EEE8
:1040B000A57AFDEEE77A17EE900A00B23FE5F0EE42
:1040C000675AFEEEE05A15EE901A4CE6F0EE675A8B
:1040D000FEEEE05A15EE900A30E6F0EE675AFEEE7C
:1040E000E05A15EE900AFDE5F0EE675AFEEEE05A52
:1040F00015EE900A0AE667EEA57AFDEEE77A17EE6E
:10410000901A09B24AE567EEA57AFDEEE77A17EE56
:10411000900A00B22CE5F0EE675AFEEEE45A15EE76
:10412000902A1FE467EEA57AFDEEE77A17EE902A53
:1041300012B2FFF731BBF0EE675AFEEEE45A15EE0D
:10414000902AFFF7FDBBF0EE675AFEEEE05A15EE3F
:10415000902AFFF79BBBF0EE675AFEEEE05A15EE91
:10416000902AFFF780BB67EEA57AFDEEE77A17EE9F
:10417000902A12B2FFF724BB82FF7F0000000030BC
:10418000000000387E0080FF30B5184C154685B021
:10419000046004F1080EEC460FC98EE80F00D4ED60
:1041A000047AF5EEC07A8CE80F00F1EE10FA1ADD11
:1041B000B7EE006A94ED057A27EE277AC6EE276AF5
:1041C00084ED0D7AC4ED0C6A6DB1204640F8185F9D
:1041D00001F086FE064903690020064A2162A262B8
:1041E000E36005B030BD012005B030BD7C880724F8
:1041F000002000300000003000680830704700BF29
:10420000B1F5807F03680A4628BF4FF48072B1F58C
:10421000807F9A6094BF00200120704700681830AA
:1042200001F0BEBE70B504688AB0A369E160CBB18D
:1042300004F11805284601F053FE8446EE46E66870
:10424000BCE80F00AEE80F00BCE80F00AEE80F00BE
:104250009CE803008EE8030069462846049601F0B6
:1042600047FDF8B9E069D8B104F11C05284601F012
:1042700037FE8446EE46E468BCE80F00AEE80F0067
:10428000BCE80F00AEE80F009CE803008EE80300D6
:1042900069462846049401F02BFD003818BF012020
:1042A0000AB070BD01200AB070BD00BF30B504680F
:1042B00083B00D46E3694BB1A3680020E26A616AEE
:1042C0009B00009004F11C0001F00CFEA36807485D
:1042D000A26A9B00216A009004F1180001F002FE1E
:1042E0000020C4E9005003B030BD00BFCD350490BC
:1042F00010B4074B4FF07E51302400220320196187
:104300009C60D8605DF8044B5961C3E90622704790
:104310007C880724704700BFF8B5134F3C687F2C9A
:1043200007D98023114A42F224411C463B60A2F87F
:104330007E100F4D2B68012B0AD90C4E0D4D2246D5
:104340003146284600F074F90028F8D13860F8BDED
:1043500022460649074800F06BF90028F7D12B6880
:10436000386001332B60F8BDB8880724BC88072467
:10437000B48807243C89072430B4154C2168F1B176
:104380004B1E144DE81810F801298C4619460A2ACC
:1043900001D00D2A02D14BB1013BF4E70CF102032D
:1043A0007F2B10D98023236030BC70470122022369
:1043B00023600D200A236854AB5430BC704701229F
:1043C0000223044DF4E70CF101026146F0E700BF5F
:1043D000B8880724BC88072410B5094C02460B4650
:1043E000084821680844C1F1800111F021F82368D0
:1043F00018442060FFF7C0FFFFF78EFF10BD00BF1D
:10440000B8880724BC8807240FB400B583B004A97A
:1044100051F8040B0191FFF7DFFF03B05DF804EBE7
:1044200004B0704710B5044600210A4800F07AF83D
:10443000002C094B14BF0222002208481A60FFF723
:10444000E3FF0748FFF7E0FF0A20BDE8104001F056
:104450006FBE00BF3C890724B48807249876059076
:10446000A8760590064A0749074808B50FF096FE5A
:10447000034A04490548BDE808400FF08FBE00BF5D
:1044800000000024154304903C8907244089072438
:1044900070B5044682B0C1F30726CDB2ADF8041062
:1044A00001F044FE4FF480724FF001232060A01D04
:1044B000A571A280E671A36002B0BDE8704000F073
:1044C000E3BB00BF38B5044601F030FE002223688C
:1044D0002271834210D00122A57AE37A95402060B0
:1044E0002271A01D6DB243B900F0AAFC40B228436E
:1044F000C0B27F28A0720AD038BD00F0A1FCB0FA8B
:1045000080F040092843C0B27F28A072F4D101F0A6
:104510000DFE07EE900AF8EE677AC4ED037A38BD17
:10452000704700BF012910B506D0022915D051B13E
:10453000BDE8104006F0C2BA0A46344834490AF0D1
:1045400057FCE8B1FEE7334B0A46334C3349344855
:104550001C600AF04DFC68B1FEE701222C492B4893
:104560000AF046FC00B1FEE72E4928480AF062FC3A
:10457000C0B1FEE72B492A480AF05CFC60B1FEE7B7
:10458000284922480AF056FC00B1FEE726491F4898
:104590000AF0DEFB08B3FEE7244921480AF0D8FB05
:1045A000A8B1FEE7204919480AF0D2FB00B1FEE7A6
:1045B00016480AF055FC024640B9164B164C1749EE
:1045C00017481C600AF014FC68B1FEE7FEE71448C7
:1045D0000AF046FC0028ABD0FEE70C480AF040FC8D
:1045E0000028A5D0FEE70F490D480AF023FC00B1D2
:1045F000FEE70E490A480AF0ABFB00B1FEE70848A7
:104600000AF02EFC002893D0FEE700BFE08B0724C1
:10461000040100247C8E072421450490E800002436
:10462000448907246C010024C8000024B800002439
:10463000084691B208B501F0D5FF003818BF012037
:1046400008BD00BF014805F017BD00BF68B90724C9
:10465000014805F011BD00BF68B90724014805F005
:104660000BBD00BF68B9072482B04FF0000C0323D4
:10467000ADF80410BDF8042080F810C0028043801B
:1046800002B070472DE9F04FBE4E00258FB0BE4CF2
:10469000037006F1400342600746019288462022DB
:1046A00029463046C4F85831C4F85461CDE9035561
:1046B000CDE90555CDE90755CDE90955CDE90B55AE
:1046C00010F0C6F82022294604F59970C4F821514B
:1046D000C4F82551C4F82951C4F82D5110F0B8F888
:1046E000019B84F8385284F820317A68002A5FD020
:1046F0002B464146B64604F5907599464FF0010A9F
:1047000003EB0310D1F800B0D1F804800133D1F8E5
:1047100008C02218CE6844F800B0C2F80480C2F87D
:1047200008C0D660087C2EF8029B10740A7C05F83D
:10473000012F002A69D07A68113184F838A29A4290
:10474000DED84FF4802291489DF8043008214FF0C4
:1047500000084FF00009C4F874310023C4E957027F
:104760000122C4F8643184F87031C4E95A2194F804
:104770003812C4E9608981B3C4F88821002284F822
:10478000713184F878313B78C4E96322A3B3012204
:1047900000200121013B84F89421C4E96801082B21
:1047A0002CD8DFE803F0ABB0B5BABFC4C9CFD60090
:1047B0009DF804300121C4F86421C4F874314FF429
:1047C000802384F87021714AC4E95723082300220A
:1047D000C4E95A130023C4E960230123002284F8AA
:1047E0007131002384F878310323C4F888313B7891
:1047F000C4E96322002BCAD184F89431644803F0E1
:104800002DF8034638B1FFBEFEE77A6811319A42AF
:104810003FF676AF95E703A95D48039303F07CF973
:104820000546002868D1022240F2FF73CDE9082333
:1048300000230422CDE90A2394F82031002B00F054
:10484000D5804FF0060921E0022B00F08980012B72
:1048500040F0C4809AF80130012B00F0C180002B99
:104860004C4B18BF002306A94948CDE9063902F090
:1048700021FC002840F0BF80013594F82031EDB2D2
:10488000AB4240F2B380444B53F825902FB207EB74
:10489000071704EB070A504600F0F6F905EB05137D
:1048A00023441B7C042B7DDC022B00F3918000F061
:1048B0008D806319002283F81021E35D002BC3D1A2
:1048C0009AF80130062B00F08580072B00F08A80D3
:1048D000022B00F09680032B00F09580002B00F057
:1048E0009680012B00F09180042B00F09280052B24
:1048F0002A4B18BF0023B6E7FFBEFEE70322402382
:10490000C4E966237AE707226023C4E9662375E7D2
:104910000F228023C4E9662370E71F22A023C4E985
:1049200066236BE73F22C023C4E9662366E77F2244
:10493000E023C4E9662361E7FF224FF48073C4E9F2
:1049400066235BE740F2FF124FF49073C4E96623DD
:1049500054E740F2FF324FF4A073C4E966234DE7F9
:104960009AF80130042B37D0052B3DD0002B40D0D6
:10497000012B42D0022B42D0032B094B18BF00233E
:1049800071E700BF00400030888E072400200240FD
:10499000E48F07240002B025B87605900000B84FD8
:1049A0000020903603233E1D04EB05084FF0000B5A
:1049B000264488F8103130460BF1010B00F064F901
:1049C00098F8103104365B45F5DC76E70123EAE719
:1049D0000223E8E7104B46E7104B44E7002342E789
:1049E0000F4B40E70F4B3EE70F4B3CE70FB0BDE8E6
:1049F000F08F0E4B37E7FFBEFEE70D4B33E70D4B55
:104A000031E70D4B2FE70D4B2DE70D4B2BE70D4BF2
:104A100029E70D4B27E700BF0800900C1000C010DD
:104A20002000F0148000501D000180210004002AA5
:104A30000008302E001060320040C03A0080F03E86
:104A400000005247000021430000844B38B5094C58
:104A500040F2FF724FF0011104F5AE75284603F0E5
:104A600009F894F82021D4F854112846BDE83840BC
:104A700002F074BD888E0724064B0F29D3F85431F9
:104A800098BF03EB41031B8800EE103ABBEEC80A47
:104A9000704700BF888E0724214B02689A4200D0DD
:104AA0007047204A00232048D2F8D81030B51F4C58
:104AB00041F0200183B0C4F8C001092004F5E0757D
:104AC000C4E971034FF48060C2F8D810D2F8D8203E
:104AD0004FF40061C4E9733094F8380202F0200208
:104AE000C4F8D4114FF40051984201922846C4F8FA
:104AF000D811C4E97833019B14BF00234FF48073AD
:104B0000C4F8DC3103F02EFA08B1FFBEFEE704F56D
:104B1000AE73C4F8A851C4F8F83103B030BD00BF7B
:104B2000002002400044025840000240888E0724C2
:104B3000014803F08FBD00BF4890072402682DE9AB
:104B4000F84F4B4B9A4201D0BDE8F88F494D95F88C
:104B50003832002BF8D095F82031002B77D0002484
:104B600005F10C0905F5997605F59077A04613E057
:104B700003F0010117F811BCA9F1080000F06EF96B
:104B8000BBF1010F25D895F82031013409F1110945
:104B90000236A2B293422BD917F8012F002AF4D083
:104BA000D5F854310021327833F81400D5F8583153
:104BB00003EB041323F81200338801339BB23380D4
:104BC0005FFA83FA3A789A42D2D88A46A6F80080E9
:104BD000D0E7CAF34001A9F1040000F03FF9BBF1AE
:104BE000020FCAF38001CED0484600F037F9CAE779
:104BF000002395F83802204909229842C5F8C831A7
:104C00004FF48060C5F8C011C5F8C4214FF40061AD
:104C10004FF40052C5F8CC3108BF4FF48073C5F88B
:104C2000D821C5E9740100221448C5E97732C5F8D6
:104C3000E42103F097F908B1FFBEFEE795F82021C3
:104C4000D5F854110E48BDE8F84F02F087BC0A4968
:104C500009224FF48060C5F8C831C5E970124FF4DD
:104C600000614FF40052C5E97330C5E97512DAE707
:104C700000200240888E072440000240489007240C
:104C8000E48F0724704700BF8378022B30B50446B9
:104C90008FB037D0032B33D0012B31D000230A93B0
:104CA000E378012B2AD0022B28D000230B9300237A
:104CB00020460C9302F078F80546204602F07CF876
:104CC00023780990082B13D8DFE803F01F324558EA
:104CD0006B7E91A40500594BD3F8E02042F480721A
:104CE000C3F8E020D3F8E03003F480730893089B06
:104CF00009A9284604F000F80FB030BD0B93D6E7A1
:104D00000A93CDE711230A93CAE74C4B09A9284619
:104D1000D3F8E02042F00102C3F8E020D3F8E030FD
:104D200003F001030093009B03F0E6FF0FB030BDDA
:104D3000424B09A92846D3F8E02042F00202C3F80A
:104D4000E020D3F8E03003F002030193019B03F06D
:104D5000D3FF0FB030BD394B09A92846D3F8E02066
:104D600042F00402C3F8E020D3F8E03003F004037B
:104D70000293029B03F0C0FF0FB030BD2F4B09A977
:104D80002846D3F8E02042F00802C3F8E020D3F828
:104D9000E03003F008030393039B03F0ADFF0FB073
:104DA00030BD264B09A92846D3F8E02042F0100276
:104DB000C3F8E020D3F8E03003F010030493049B21
:104DC00003F09AFF0FB030BD1C4B09A92846D3F859
:104DD000E02042F02002C3F8E020D3F8E03003F0F6
:104DE00020030593059B03F087FF0FB030BD134BE5
:104DF00009A92846D3F8E02042F04002C3F8E02099
:104E0000D3F8E03003F040030693069B03F074FFF1
:104E10000FB030BD094B09A92846D3F8E02042F075
:104E20008002C3F8E020D3F8E03003F0800307935A
:104E3000079B03F061FF0FB030BD00BF0044025874
:104E400038B5054601F0B0FF0446284601F0B4FF2E
:104E500001462046BDE8384004F056B970B5064614
:104E60000D4601F0A1FF0446304601F0A5FF2A1EC1
:104E70000146204618BF0122BDE8704004F04AB93F
:104E80000023122270B586B0CDE902230493036893
:104E9000032B01D804230593061D841D304601F021
:104EA00083FF0546304601F087FF034601A92846E7
:104EB000019303F021FF204601F076FF03462046D0
:104EC0001C4601F079FF01A903462046019303F037
:104ED00013FF06B070BD00BF634A0368934210B56C
:104EE0008CB028D0614A934258D0614A934200F076
:104EF0009480604A934201D00CB010BD5E4C5F4874
:104F0000D4F8E03043F00203C4F8E030D4F8E030E5
:104F100003F002030A930A9BFFF7B2FFD4F8F430C0
:104F200043F08003C4F8F430D4F8F43003F0800385
:104F30000B930B9BE0E7504C5148D4F8E03043F022
:104F40000203C4F8E030D4F8E03003F00203019328
:104F5000019BFFF795FFD4F8E83000221F2043F4AF
:104F600000131146C4F8E830D4F8E83003F4001315
:104F70000293029BD4F8D83043F00103C4F8D83030
:104F8000D4F8D83003F001030393039B02F038FEFA
:104F90001F200CB0BDE8104002F070BE364C3948FE
:104FA000D4F8E03043F08003C4F8E030D4F8E030C7
:104FB00003F080030493049BD4F8E03043F0020331
:104FC000C4F8E030D4F8E03003F002030593059B09
:104FD000FFF756FFD4F8E8300022212043F4800385
:104FE0001146C4F8E830D4F8E83003F4800306939F
:104FF000069BD4F8D83043F00103C4F8D830D4F875
:10500000D83003F001030793079B02F0F9FD21203C
:105010000CB0BDE8104002F031BE1B48FFF730FF76
:10502000154B00224820D3F8E840114644F4000410
:10503000C3F8E840D3F8E84004F400040894089C5E
:10504000D3F8D84044F00104C3F8D840D3F8D8309E
:1050500003F001030993099B02F0D2FD48200CB034
:10506000BDE8104002F00ABE005400400058004065
:10507000005C0040001C0058004402585093072474
:10508000C8900724A0910724789207242DE9F043C3
:105090001A4B87B000254FF010099E46EC46184B7E
:1050A000FF22E04667461A700EF118060EF1300432
:1050B000CDE90055CDE90255ADF80090BCE80F00F0
:1050C000CDE90455AEE80F009CE803000095ADF86B
:1050D00000908EE80300B8E80F000FC69CE80300BC
:1050E0000095ADF8009086E803000FCF0FC49CE850
:1050F000030084E8030007B0BDE8F08370000024DB
:10510000C490072410B5EFF3108472B6084B1A78D8
:10511000120602D504B962B610BD1B78D822054824
:105120005BB202FB0300143003F094FAF2E700BF15
:10513000C4900724C8900724014804F083BE00BF30
:1051400054910724014804F07DBE00BF2C9207242F
:10515000014804F077BE00BF049307242DE9F04313
:105160000F68D8243F4D85B007FB04F4032F05EBEF
:105170000403036040DCCB680E46012B3CD84DD0C5
:105180004FF0D808B646DFF8FC9008FB0758BEE899
:105190000F00C446ACE80F00DEF800300DF1100E31
:1051A000CCF80030D8F808C099E80F000EE90F00DD
:1051B0000EEB8703BCF1010F53F8103CC8F88C309C
:1051C00031D0BCF1020F42D0BCF1000F35D0317CA0
:1051D0008C34D823002201202C4403FB07534900C0
:1051E000C3E92602C3F894102046C3E92822C3E984
:1051F0002A2204F019FC18B1012005B0BDE8F083A3
:105200000146204604F02AFE0028F5D1014620463A
:1052100004F04EFE003818BF0120EEE70B7C103B77
:10522000672BADD9E8E701F0EFF80F4B98420CBFC0
:105230000E4B0F4BC8F89030C9E701F0E5F80A4B68
:1052400098420CBF0B4B0C4BC8F89030BFE701F0F5
:10525000DBF8054B98420CBF084B094BC8F890305F
:10526000B5E700BFC8900724000E27072D0FB03008
:105270003211D0205F4390608A62E030200BA01092
:105280001A098010647605902DE9F041D0F800806D
:1052900082B00D4617461E4608F18C04204604F0E5
:1052A000D9FD2028FAD1D8F80C3073B96D0020460A
:1052B000089C33463A46A9B2009404F00BFC00382F
:1052C00018BF012002B0BDE8F081089B3246394684
:1052D000204604F0D3FCF2E7044B10221A7483F842
:1052E000E82083F8C02183F898227047C8900724EB
:1052F00030B5002395B04FF48071062204460B931D
:1053000006921393CDE90C13CDE90E33CDE9113399
:1053100001F07CF807282BD004F1100541F2883207
:1053200006A9284605F016FD28B10123184684F881
:105330005C3015B030BD0222022306A92846CDE913
:10534000002310220123CDE9022300224FF4800321
:10535000CDE9042305224FF0807306926A460F932D
:1053600041F2883305F062FE0028DED115B030BD71
:105370000323012084F85C3015B030BD000000002C
:1053800070B50023A4B04FF080724FF480750446CE
:10539000ADF806300D93CDE910320122CDE90E5360
:1053A000CDE91223CDE91433002943D0F02300F1D5
:1053B000100508AEADF80630C02341F28832314600
:1053C0002846089305F0C6FC28B10123184684F846
:1053D0005C3024B070BD41F288320DF106012846E0
:1053E00005F022FD03460028EFD105224FF480711D
:1053F0001E93284616924FF080721B9321931F92A2
:1054000002AA9FED1F7BCDE91C13CDE922338DED60
:10541000027B9FED1D7B41F2883316A98DED047B45
:105420009FED1B7B8DED067B05F000FE0028CCD1A7
:1054300024B070BD00F1100508AE612341F288323E
:1054400031462846089305F085FC0028BDD141F27D
:1054500088320DF10601284605F064FD0028B4D11C
:10546000BDF80630204623F0780343F04003ADF842
:105470000630FFF73DFF00289ED0A6E7AFF300807F
:10548000000000000100000010000000010000000A
:1054900000000000000040002DE9F04F00234FF411
:1054A000807501264FF0807804462DED028BABB05D
:1054B0008DF8073013932193299314950E96CDF808
:1054C0005C80CDE91533CDE91863CDE91A33CDE918
:1054D0002253CDE92433CDE9273306231C9300F072
:1054E00095FF072808D004F1100741F288321CA963
:1054F000384605F02FFC40B10123184684F85C3093
:105500002BB0BDEC028BBDE8F08F4FF0020A4FF0DC
:10551000020B4FF0050941F2883308AA1CA938464E
:10552000CDF89480CDF870909FED2D8BCDE908AB30
:105530004FF0000A4FF4800B8DED0A8BCDE90CABD8
:1055400005F074FD0028D7D141F2883238460EA903
:1055500005F000FC0028CFD1402341F288320DF144
:10556000070138468DF8073005F05EFC0028C3D1EE
:1055700041F288330EA902AA3846CDF83890CDF80A
:105580005C809FED197B8DED048BCDE906AB8DED35
:10559000027B05F04BFD03460028ADD1CDF870909D
:1055A0004FF00109CDF894804FF00008219308AA2C
:1055B00029931CA938462295CDE92333CDE9273319
:1055C00041F288338DED0A8BCDE90CABCDE908892A
:1055D00005F02CFD002893D0304684F85C608FE7FE
:1055E000100000000100000040000000400000002A
:1055F0002DE9F043624CA3B00D46046000F006FFB5
:10560000072800F0A980286823466968AA6807C3AC
:105610001E46AB8926F8043B3046257B677B05F0A8
:105620007BFBE0B9574B012D4FF00108E06123618E
:1056300014BF4FF480134FF40003C4E9058893FAB4
:10564000A3F3B3FA83F34FF48079013BC4F82490B9
:10565000C4E90B003046236205F0F2FA38B10122AA
:10566000134684F85C20184623B0BDE8F083662317
:105670000B90139041F2883206A90693CDE90C9065
:10568000CDE90E00CDE91100304605F063FB00289E
:10569000E5D1992341F2883206A93046069305F0F8
:1056A00059FB0028DBD105231C9019906A461493FE
:1056B0004FF08073219014A91D9341F288339FED20
:1056C0002A7BCDE91A90CDE91F008DED007B9FED7F
:1056D000287B30468DED027B9FED277B8DED047B93
:1056E00005F0A4FC0028BAD129462046FFF748FE61
:1056F0000028B4D12046FFF7CFFE03460028AED1E4
:10570000002FB0D1189330460027002606AA14A90E
:10571000CDF86890CDE91F33EB2314934FF4406329
:105720001B934FF4005317934FF440431C93A02353
:105730001693062319934FF0805321934FF0407333
:10574000CDE906671D9305F0E9FC034600288AD0E1
:10575000434684F85C8086E701230322184684F8D8
:105760005C2023B0BDE8F0830000000001000000D1
:1057700010000000010000000000000000004000D8
:1057800028940724005000522DE9F04F8FB0414B70
:105790000024026800AF9A427C63C7E90944C7E964
:1057A0000B4403D03C37BD46BDE8F08F3A4B40F682
:1057B00009213A48EB46D3F8D42007F11C0607F13B
:1057C000220A4FF0020942F480424FF00308C3F866
:1057D000D420D3F8D42002F48042BA60BA68D3F857
:1057E000E02042F04002C3F8E020D3F8E02002F0CD
:1057F0004002FA60FA68D3F8E02042F02002C3F8D1
:10580000E020D3F8E02002F020023A613A69D3F8B0
:10581000E02042F01002C3F8E020D3F8E02002F0CC
:1058200010027A617A69D3F8E02042F00202C3F8EC
:10583000E020D3F8E030F86103F002033984BB6163
:10584000174B7B60BB697B6853F8040F7B6001F0EA
:10585000ABFA7B680546186801F0AEFA16F8013B12
:10586000786207F124012846C7F830807B63C7E9D6
:105870000A9403F041FA5645E5D100225C20114616
:1058800002F0BEF95C2002F0F9F93C37DD46BD4676
:10589000BDE8F08F00500052004402580A0A09097E
:1058A00084940724114B02689A4200D07047104A32
:1058B00070B5D2F8D4300F4C23F4804304F11806AD
:1058C000C2F8D43054F8040F01F06EFA054620688F
:1058D00001F072FA0146284603F04EFBB442F1D1C2
:1058E0005C20BDE8704002F0D7B900BF0050005204
:1058F0000044025884940724014805F09BBC00BF73
:1059000038940724084B1A1D981D03F1080110B4A0
:105910009C1C9A6603F10A02C3E91834C3E91B010F
:105920005DF8044B5A6770472894072438B503681C
:1059300071B9026A00F1280500F5AC74012A0CBFA8
:10594000002140218BBB1D4B5722C0F858310DE080
:10595000426A00F1C00500F5E874012A0CBF00217D
:105960004021EBB1164B5A22C0F8D031002320461B
:10597000C4E901214FF480524FF480616362626197
:105980004FF48042C4E903314FF48073C4E9062325
:105990004FF40033236202F0E5FA58B1FFBEFEE790
:1059A000084B5822C0F8D031E0E7074B5922C0F825
:1059B0005831DBE7C5E92044A56338BD100002403B
:1059C0007000024028000240580002402DE9F043D8
:1059D000821D05468BB0031D05F10A010830CDE993
:1059E000052305F10C02AB69CDE907010992002BF3
:1059F0003DD0EB69B3FA83F84FEA5818012302222D
:105A000005AE0AAF4FF006090393CDE9012356F81E
:105A1000044B2B792278934216D02B68F3B1012BDB
:105A200002D1F2B10A230493204601F0C5F90346DE
:105A30002046009301F0B8F9694603F05DF9BE42D3
:105A4000E5D10BB0BDE8F083697963789942E4D180
:105A5000B8F1000FF3D02B68002BE0D1CDF81090F7
:105A6000E2E76378022B14BF0A230823DBE74FF039
:105A70000108C3E7534A0368934230B505468BB02B
:105A800055D02032934252D04F4A934204D0203214
:105A9000934201D00BB030BD4C4C4D48D4F8E030AF
:105AA00043F00103C4F8E030D4F8E03003F0010320
:105AB0000593059BD4F8E03043F00803C4F8E030C8
:105AC000D4F8E03003F008030693069BD4F8E030E6
:105AD00043F04003C4F8E030D4F8E03003F0400372
