:020000040800F2
:10000000000002209906000895060008FD6E000811
:1000100095060008950600089506000800000000F7
:10002000000000000000000000000000950600082D
:10003000950600080000000095060008816E000883
:100040009506000895060008950600089506000824
:100050009506000895060008950600089506000814
:10006000950600089506000895060008595D0008E9
:10007000655D0008B54C0008715D00087D5D0008F5
:10008000BD0D010889520008950600089506000874
:1000900095060008950600089506000895060008D4
:1000A00095060008950600089506000895060008C4
:1000B000910101089D010108A9010108BD52000834
:1000C00095060008C95200089506000885670008D3
:1000D00091670008F10B0108210C0108550C01087B
:1000E0009506000895060008000000009506000827
:1000F0009506000895060008950600089506000874
:100100009506000895060008B50101089D670008DE
:10011000890C0108BD0C0108950600089506000829
:100120009506000895060008C1670008F5670008F5
:10013000F10D0108950600089506000895060008CF
:1001400000000000000000000000000000000000AF
:10015000950600089506000895060008F10C0108B0
:10016000D552000895060008916E0008B56E00088B
:1001700095060008D96E0008950600089506000847
:100180009506000895060008250D0108550D010883
:10019000A9670008B56700089506000895060008DD
:1001A00095060008950600089506000895060008C3
:1001B000795A00089506000895060008950600087B
:1001C00095060008950600089506000895060008A3
:1001D0009506000895060008950600089506000893
:1001E0009506000895060008950600089506000883
:1001F0009506000895060008950600089506000873
:100200009506000895060008950600089506000862
:100210009506000895060008950600089506000852
:1002200095060008950600089506000800000000E5
:1002300095060008950600080000000095060008D5
:100240009506000895060008950600089506000822
:100250009506000895060008950600089506000812
:100260009506000895060008950600089506000802
:100270009506000895060008890D01080000000099
:100280009506000895060008950600080000000085
:080290000000000095060008C3
:1002A00010B5054C237833B9044B13B10448AFF3B0
:1002B00000800123237010BD000400240000000012
:1002C000D86B010808B5034B1BB103490348AFF3D2
:1002D000008008BD0000000004040024D86B010861
:1002E00001F0FF01102A2BDB10F0070F08D010F8E7
:1002F000013B013A8B422DD010F0070F42B3F6D1EB
:10030000F0B441EA012141EA014122F007047FF003
:1003100000070023F0E80256083C85EA010586EA5A
:10032000010685FA47F5A3FA87F586FA47F6A5FA96
:1003300087F68EB9EED1F0BC01F0FF0102F00702A2
:1003400032B110F8013B013A83EA010313B1F8D14D
:100350000020704701387047002D06BF354603382E
:10036000073815F0010F07D1013015F4807F02BF67
:10037000013015F4C03F0130F0BC0138704700BFB8
:10038000034613F8012B002AFBD1181A01387047D5
:1003900053B94AB9002908BF00281CBF4FF0FF31EC
:1003A0004FF0FF3000F074B9ADF1080C6DE904CEE8
:1003B00000F006F8DDF804E0DDE9022304B0704740
:1003C0002DE9F047089D04468E46002B4DD18A4208
:1003D000944669D9B2FA82F252B101FA02F3C2F13B
:1003E000200120FA01F10CFA02FC41EA030E9440CC
:1003F0004FEA1C48210CBEFBF8F61FFA8CF708FBED
:1004000016E341EA034306FB07F199420AD91CEBC4
:10041000030306F1FF3080F01F81994240F21C81F6
:10042000023E63445B1AA4B2B3FBF8F008FB10333E
:1004300044EA034400FB07F7A7420AD91CEB040473
:1004400000F1FF3380F00A81A74240F20781644443
:10045000023840EA0640E41B00261DB1D4400023C8
:10046000C5E900433146BDE8F0878B4209D9002D2C
:1004700000F0EF800026C5E9000130463146BDE8B6
:10048000F087B3FA83F6002E4AD18B4202D3824220
:1004900000F2F980841A61EB030301209E46002DCF
:1004A000E0D0C5E9004EDDE702B9FFDEB2FA82F224
:1004B000002A40F09280A1EB0C014FEA1C471FFA82
:1004C0008CFE0126200CB1FBF7F307FB131140EA69
:1004D00001410EFB03F0884208D91CEB010103F136
:1004E000FF3802D2884200F2CB804346091AA4B2F8
:1004F000B1FBF7F007FB101144EA01440EFB00FECC
:10050000A64508D91CEB040400F1FF3102D2A64530
:1005100000F2BB800846A4EB0E0440EA03409CE7CF
:10052000C6F12007B34022FA07FC4CEA030C20FA7C
:1005300007F401FA06F31C43F9404FEA1C4900FA9C
:1005400006F3B1FBF9F8200C1FFA8CFE09FB181119
:1005500040EA014108FB0EF0884202FA06F20BD98C
:100560001CEB010108F1FF3A80F08880884240F2DC
:100570008580A8F102086144091AA4B2B1FBF9F020
:1005800009FB101144EA014100FB0EFE8E4508D91B
:100590001CEB010100F1FF346CD28E456AD90238A0
:1005A000614440EA0840A0FB0294A1EB0E01A14285
:1005B000C846A64656D353D05DB1B3EB080261EBF3
:1005C0000E0101FA07F722FA06F3F1401F43C5E9CD
:1005D000007100263146BDE8F087C2F12003D84003
:1005E0000CFA02FC21FA03F3914001434FEA1C4745
:1005F0001FFA8CFEB3FBF7F007FB10360B0C43EA37
:10060000064300FB0EF69E4204FA02F408D91CEBE6
:10061000030300F1FF382FD29E422DD902386344E4
:100620009B1B89B2B3FBF7F607FB163341EA034184
:1006300006FB0EF38B4208D91CEB010106F1FF38D3
:1006400016D28B4214D9023E6144C91A46EA0046CA
:1006500038E72E46284605E70646E3E61846F8E65C
:100660004B45A9D2B9EB020864EB0C0E0138A3E7A5
:100670004646EAE7204694E74046D1E7D0467BE786
:10068000023B614432E7304609E76444023842E7FE
:10069000704700BFFEE700BF0B480C4A904203D0F2
:1006A000121A0B4912F0ECFE0A480B4A904203D092
:1006B000121A002112F00CFF06F04AFE12F0ACFEF6
:1006C00002F068FEFEE700BF00000024FC030024E7
:1006D000086C0108000400246C420024704700BF2D
:1006E00003681847012A03D0022A04D0002070476B
:1006F0000160002070470B6803600020704700BF56
:10070000012A03D0022A04D0002070470160002093
:1007100070470B6803600020704700BF012A03D0B8
:10072000022A04D0002070470160002070470B6847
:1007300003600020704700BF012A03D0022A04D0C2
:10074000002070470160002070470B6803600020A4
:10075000704700BF012A03D0022A04D0002070474E
:100760000160002070470B6803600020704700BFE5
:1007700010B5044682B008460191FFF701FE61689A
:100780006FF040435B1A0199984206D80246204612
:1007900002B0BDE8104012F0EBBD014812F08DFC34
:1007A000F43E010870B5044608304B6882B0206002
:1007B0000D68EE1800D0B5B10F2B01930AD8324660
:1007C000294612F00AFD019B226800216360D15482
:1007D00002B070BD002201A9204612F079FC019BF5
:1007E0002060A360EBE7014812F064FC0C3F0108B5
:1007F000F0B500F1080683B00660F9B1044608467A
:100800000D46FFF7BDFD0F28019005EB00070BD843
:100810003A462946304612F0E5FC019B2268002149
:100820006360D15403B0F0BD002201A9204612F04C
:100830004FFC019B06462060A360E9E7014812F0E7
:1008400039FC00BF0C3F01080368D3E90021481EB2
:10085000002A58600FDB032A06DC002808DB042886
:1008600001DD063959607047043A00281A60F6DA4B
:1008700004315960704704321A60EEE769B9F0B587
:10088000476883B006890446BE4228BF3E46BB1B6C
:1008900043601BB9037003B0F0BD7047C7F516374E
:1008A0000D464030012104F09BFB3744064904F11A
:1008B0000C0001942B46054C39443246009406F056
:1008C000CFF903B0F0BD00BF000000307D08000884
:1008D000144B1A7810B5E2B10022134801241349D1
:1008E0001A7004700A70124A00231248918B124C3D
:1008F00000F1010E4FEA112CC9B2002200F813C01A
:100900000EF8131004F813200133B3F5963FF4D119
:1009100010BD054B19780029E5D0044901201A7053
:100920000870E0E705000024700800247108002426
:100930008007002400000030000000C00268136837
:10094000591E12D4032908DC11605368002B09DBFF
:10095000042B01DD053B53607047053B1360536872
:10096000002BF5DA05335360704703331360ECE76F
:1009700002681368591C12D4032908DC11605368FB
:10098000002B09DB042B01DD053B53607047033B63
:1009900013605368002BF5DA053353607047053355
:1009A0001360ECE70368D3E90021481C002A586073
:1009B0000FDB032A06DC002808DB042801DD0439EC
:1009C00059607047043A00281A60F6DA0631596017
:1009D000704704321A60EEE710B50446406A18B159
:1009E000E16A091A12F061FBA36923B104F1100155
:1009F000032208469847204610BD00BFD0F880303B
:100A000010B5044623B100F1780103220846984747
:100A1000236E23B104F15801032208469847236C42
:100A200023B104F13801032208469847236A23B111
:100A300004F11801032208469847204610BD00BF64
:100A4000D0F8483310B5044682B023B100F5507198
:100A5000032208469847D4F814332BB104F54371A8
:100A60000322084601919847D4F8E4322BB104F5EB
:100A700037710322084601919847D4F8A4322BB16C
:100A800004F527710322084601919847D4F884326F
:100A900023B104F51F71032208469847D4F84C325D
:100AA00023B104F51171032208469847D4F81C328B
:100AB00023B104F50571032208469847D4F8DC31C8
:100AC00023B104F5EA71032208469847D4F8BC31F3
:100AD0002BB104F5DA710322084601919847D4F846
:100AE000843123B104F5BE71032208469847D4F837
:100AF000543123B104F5A671032208469847D4F86F
:100B0000143123B104F58671032208469847D4F8BE
:100B1000F43023B104F1EC01032208469847D4F8DD
:100B2000BC3023B104F1B401032208469847D4F83D
:100B30008C3023B104F18401032208469847E36C0A
:100B400023B104F14401032208469847E36A23B124
:100B500004F12401032208469847204602B010BD44
:100B60002DE9F04F40F606338BB0012400F14C061E
:100B7000009340F60112F54B002780464FF0020B20
:100B800001930823A0F84C2008F1480A80F84E4051
:100B90003046059308F1180504940997CDF820B064
:100BA000DFF8D093CDE90277CDE9067704F02EF98E
:100BB00040F60102504688F84A40A8F8482004F060
:100BC00025F9BDF80620404688F8524020F8502FFD
:100BD00004F01CF96946284605F0B2FFDC4BDD4AFB
:100BE000DD49DE48DFF890C3C8E90732DC4AC8E9CE
:100BF0000912DC4A3946C8E90B0202F1B2425046FA
:100C000002F533220632C8F83420D74AC8E90EC2AA
:100C1000A2F1C652A2F55432A2F28A22C8F84020AC
:100C200002F1845202F50632C332C8F84420CF4A9A
:100C3000C8F85420282288F8582004F0D1F90A2056
:100C400006F0CEF9214650464FF0360A04F0C8F9B6
:100C5000782006F0C5F9394630468DF8004004F09A
:100C6000BFF9224669466423284605F0EFFF642059
:100C700006F0B6F9CB23394630468DF8003004F043
:100C8000AFF9224664236946284605F0DFFF99E85C
:100C9000030009F11009009030468DF80410214638
:100CA00004F09EF9052269466423284605F0CEFF2C
:100CB000CF23394630468DF8003004F091F92246B2
:100CC00069466423284605F0C1FF59F8083C2146CF
:100CD0003046ADF800301B0C8DF8023004F080F97E
:100CE000032269466423284605F0B0FFE82339460D
:100CF00030468DF8003004F073F9224669466423CB
:100D0000284605F0A3FF59F8043C21463046ADF8CB
:100D100000301B0C8DF8023004F062F903226946A2
:100D20006423284605F092FFEA23394630468DF8C1
:100D3000003004F055F9224664236946284605F040
:100D400085FF21463046ADF8007004F049F95A4657
:100D500069466423284605F079FFED23394630467D
:100D60008DF8003004F03CF9224669466423284699
:100D700005F06CFF7E4B21463046009304F030F9BD
:100D8000042269466423284605F060FFF7233946AC
:100D900030468DF8003004F023F92246694664237A
:100DA000284605F053FF2023214630468DF80030B9
:100DB00004F016F9224669466423284605F046FFEA
:100DC000C023394630468DF8003004F009F9224638
:100DD00069466423284605F039FF2323214630461F
:100DE0008DF8003004F0FCF822466946642328465A
:100DF00005F02CFFC123394630468DF8003004F051
:100E0000EFF8224669466423284605F01FFF1023A9
:100E1000214630468DF8003004F0E2F8224669465B
:100E20006423284605F012FFC523394630468DF865
:100E3000003004F0D5F8224669466423284605F0C0
:100E400005FF42F63E0321463046ADF8003004F07F
:100E5000C7F85A4669466423284605F0F7FEC723BB
:100E6000394630468DF8003004F0BAF8224669461B
:100E70006423284605F0EAFE8623214630468DF895
:100E8000003004F0ADF8224664236946284605F098
:100E9000DDFE394630468DF800A004F0A1F8224668
:100EA00069466423284605F0D1FE48232146304692
:100EB0008DF8003004F094F82246694664232846F1
:100EC00005F0C4FE3A23394630468DF8003004F070
:100ED00087F8224669466423284605F0B7FE552365
:100EE000214630468DF8003004F07AF822466946F3
:100EF0006423284605F0AAFEB123394630468DF812
:100F0000003004F06DF8224669466423284605F057
:100F10009DFE4FF4C05321463046ADF8003004F03A
:100F20005FF85A4669466423284605F08FFEB623CB
:100F3000394630468DF8003004F052F822466946B2
:100F40006423284605F082FE18E000BF0105060A6A
:100F50000000FFFFFF5AEB18FD76E0FFE1F9804843
:100F6000E149E0FBE73FE001718C694A4001F00094
:100F7000640312815C3E0108652975AD604B214612
:100F800030461B68ADF800301B0C8DF8023004F0C1
:100F900027F8032269466423284605F057FEF2230A
:100FA000394630468DF8003004F01AF822466423A2
:100FB0006946284605F04AFE214630468DF8007005
:100FC00004F00EF8224669466423284605F03EFEEA
:100FD0002623394630468DF8003004F001F82246C9
:100FE00064236946284605F031FE214630468DF8D7
:100FF000004003F0F5FF224669466423284605F0C9
:1010000025FEE023394630468DF8003003F0E8FF36
:10101000224669466423284605F018FE394BEC4603
:101020000FCBACE807002CF8023B1B0C21463046E6
:101030008CF8003003F0D4FF0F2269466423284661
:1010400005F004FEE123394630468DF8003003F008
:10105000C7FF224669466423284605F0F7FDEC46A3
:1010600099E80F00ACE807002CF8023B1B0C214666
:1010700030468CF8003003F0B3FF0F22694664233A
:10108000284605F0E3FD1123394630468DF800303F
:1010900003F0A6FF224669466423284605F0D6FDE4
:1010A000782005F09DFF2923394630468DF8003021
:1010B00003F096FF224664236946284605F0C6FDE4
:1010C000394630468DF800A003F08AFF2246694673
:1010D0006423284605F0BAFD0A2005F081FF98F840
:1010E0005830304621468DF8003003F079FF6423F4
:1010F00022466946284605F0A9FD0BB0BDE8F08FF1
:10110000383F01083C3F01082DE9F04F89B0994272
:101110009DF850409DF84CB0019400F0DB80129C8B
:10112000A24200F03081129C5E1AB0F854E0A41A7A
:10113000002E84EAE475B8BF7642A5EBE4752C4630
:101140000295994234BF01254FF0FF35A6EB040C00
:101150000395129DAA4234BF01254FF0FF35734518
:1011600004954ED2B0F85640129DA54249D2129C29
:101170000EFB043900EB4B044FEA4905A48B0095A4
:10118000019DFF2D00F0FA80019DDFF8ACA2AF1C9D
:1011900024F4FC6504F4FC644FEAA7080595069462
:1011A0001AF81940C8F1400E00EB44045FFA8EFEB5
:1011B000A58B25F4FC6405F4FC650EFB04F40EFB22
:1011C00005FE059D08FB0544069D24F07F4408FBB1
:1011D00005E524F4410405F4FC3524F4784424F0B6
:1011E0003F042C43A409DFF84CE24FEA1428009D89
:1011F0000EF8198075440AF819B06C70B0F854E014
:1012000001E0019CA71CBC10029D00930594C4F151
:101210004004C5F1000AE4B2069401E0B0F854E0DD
:101220008E453FD9B0F8564094423BD900EB4B0471
:1012300002FB0E15DFF80082B4F81C904FEA450E51
:10124000019CFF2C24D029F4FC6409F4FC6923469A
:1012500018F8154000EB4404A78B27F4FC6407F44E
:10126000FC670797069F07FB04F4059F07FB0344F1
:101270006F4B2340DDE9067407FB04F42746059C09
:1012800004FB097707F4FC3743EA07044FEA941993
:10129000684C4FEA192708F815B0A64404F81570F1
:1012A0008EF80190BAEB4C0F4FEA4C0404DA029D21
:1012B000ACEB050C039D2944A64202DD049CB4441A
:1012C0002244009B9942A9D1129C9442A6D109B014
:1012D000BDE8F08F129B09B25E1CB61A12B202FA78
:1012E00086F69642F3DD04F1020E4FEAAE0ECEF121
:1012F00040085FFA88F8B0F854308B4237D9B0F81C
:10130000564003FB0213A24231D25D00DFF828C130
:1013100000EB4B04DFF818910095019DA48BFF2D85
:101320001BD01CF8135024F4FC6A04F4FC6400EB9A
:1013300045052746AD8B25F4FC6405F4FC6508FBE8
:1013400004F408FB05F50EFB0A440EFB075504EAFE
:10135000090405F4FC352C43A409364D5F000CF854
:1013600013B04FEA142C2F4405F813C07C700132DF
:1013700012B29642BFDC09B0BDE8F08F40F201170F
:10138000DFF8B4A02FE75E1C12B2761A09B201FA98
:1013900086F6B1429BDA019B03F1020E4FEAAE0ED4
:1013A000CEF140085FFA88F8B0F85430994237D24D
:1013B000B0F8564002FB0313944231D95D00DFF8C8
:1013C00078C000EB4B04DFF868900095019DA48B7A
:1013D000FF2D1BD01CF8135024F4FC6A04F4FC64A9
:1013E00000EB45052746AD8B25F4FC6405F4FC6550
:1013F00008FB04F408FB05F50EFB0A440EFB075539
:1014000004EA090405F4FC352C43A409094D5F00E6
:101410000CF813B04FEA142C2F4405F813C07C705D
:10142000013109B2B142BFDB09B0BDE8F08F00BFA6
:10143000C0073E0000000030000000C02DE9F04170
:10144000B0F8546000F14C0882B000F11804013E7D
:101450002A230021B0F85650B6B240460F468DF808
:10146000043003F0BDFD6423012201A92046013DA3
:1014700005F0ECFB8DF80760360A404601218DF837
:1014800004708DF80570ADB28DF8066003F0A8FD0C
:101490000422642320460DEB020105F0D7FB2B2329
:1014A000394640468DF8043003F09AFD642301224A
:1014B00001A9204605F0CAFB8DF807502D0A4046C9
:1014C00001218DF804708DF805708DF8065003F039
:1014D00087FD0422642320460DEB020105F0B6FBD4
:1014E0002C23394640468DF8043003F079FD6423FF
:1014F000012201A9204605F0A9FB02B0BDE8F08158
:10150000F0B5804C91B09FED800A0B9404467F4863
:10151000ADF81410ADF80C100A9004F1080005990C
:10152000ADF80430ADF80820089403F017F9002353
:101530000A9F0E93002F00F0DB800CAD022208A959
:101540002846B847DDE90A7295E8030004F118035C
:1015500006AE86E8030093E8030085E8030096E8FA
:10156000030083E80300236A616A27620E936262C4
:101570000F911BB103222946284698470A9B1BB1AD
:1015800008A9032208469847BDF8082004F128005E
:101590005F4BADF814200B935E4B9FED5B0A0599F2
:1015A0000A93089403F0DAF800230A9F0E93002FA1
:1015B00000F0A580022208A92846B847DDE90A7292
:1015C00095E8030004F1380386E8030093E803007C
:1015D00085E8030096E8030083E80300236C616C50
:1015E00027640E9362640F911BB10322294628469B
:1015F00098470A9B1BB108A9032208469847BDF8E3
:10160000042004F14800444BADF814200B93434BE5
:101610009FED3D0A05990A93089403F09FF8002373
:101620000A9F0E93002F68D0022208A92846B847C7
:10163000DDE90A7295E8030004F1580386E8030027
:1016400093E8030085E8030096E8030083E80300BD
:10165000236E616E27660E9362660F911BB10322A3
:101660002946284698470A9B1BB108A90322084629
:101670009847BDF8582004F16800294BADF81420B4
:101680000B93284B9FED200A05990A93089403F0C9
:1016900065F800230A9F0E936FB3022208A928461B
:1016A000B847DDE90A7295E8030004F1780386E89B
:1016B000030093E8030085E8030096E8030083E84D
:1016C0000300D4F88030D4F88410C4F880700E93EE
:1016D000C4F884200F911BB103222946284698475D
:1016E0000A9B1BB108A903220846984711B0F0BD18
:1016F0000F9A0CAD28E70F9AD5E70F9A9AE70F9A41
:101700005EE700BF4908000800007A4401070008AE
:10171000A50900081D07000871090008390700081D
:101720003D090008550700080A232DE9F04F4FF046
:10173000FF0904274FF03C081E4605461A468B4811
:1017400085EAE5742DED028BA1B0A4EBE574ED0FF5
:1017500013911946CDF80080CDE90179FFF7D4FC4B
:101760004FF49B733246314680480096CDE90179AB
:10177000FFF7CAFC4FF49B73424631467B48CDF8D5
:101780000080CDE90179FFF7BFFC4FF49B7332462F
:1017900076481946CDF80890CDF800800197FFF7FC
:1017A000B3FC092C40F2A385632C40F26985B4F5A3
:1017B0007A7FC0F0AE8542F20F739C4240F2A5855D
:1017C00023460121A64608E0A04240F27B859042D4
:1017D000C0F07285B84240F26985654A1846654E88
:1017E0008C46A2FB0323644CB042644A644F4FEA28
:1017F000533301F10401E7D862467446D61C2944EC
:1018000016AB14A82D2208EE100A0F93149311F0B2
:10181000CAFC149B5B481D44AA195B4B64212646F5
:1018200042F20F77A3FB04C3023ABE424FEA5313BE
:1018300001FB13411C4600EB410310F811105B78CB
:1018400051709370E9D8B6F57A7F80F026853034F0
:101850002C700022062318EE100A009311464B4B01
:1018600011F008FD1CAB054604461A9355F8083BD9
:10187000AB4200F02E851A9383681C936368DFF8EF
:10188000ECA01B9300232560237263601A9BBAF8B7
:1018900054900E933E4BB9F1140F5A7893F800B060
:1018A0005B680D92119300F2E88409F1FF339BB25B
:1018B000BAF85680AAF86230B8F10F0F00F2DA8455
:1018C00008F1FF339BB2AAF864300E9B93F800C076
:1018D000BCF1000F00F005850E9A5846BAF8243086
:1018E000C3460A922B4A05922B4A04921A0ADBB28B
:1018F00008920993ACF12003DAB25E2A00F2A584C3
:10190000BAF862200692024491450C92C0F29D847E
:10191000BAF864200D990B920A449345C0F295845D
:10192000002960D00D9A6FF00047CDF840C002FB4F
:1019300003F31F441344119A02EB4707023A02EBE8
:10194000430307930B9B1E4609FB03F537F8024F31
:10195000002841D0114B03EB450CDDE9053103EBC9
:101960004508049B03EB450E00231DE0800700247F
:101970005917B7D19F8601003F420F00809698000B
:10198000FFE0F505704001081F85EB51743F010829
:1019900090010024000000C0000000300100003071
:1019A000984201F1010117D004FA03F2013312F455
:1019B000004FF5D04945F3D2B345F1D9089A984282
:1019C0000EF811204FF0040208F81120099A0CF8C3
:1019D000112001F10101E7D1079B4D440136BB42C3
:1019E000B4D1DDF840C0BDF83030994502D809F1D6
:1019F000FF339BB2AAF862300B9B9B4503D80BF1D7
:101A0000FF339BB20B930B9BAAF864300A9A1378AE
:101A1000634506D112F801CF0A92BCF1000F7FF4A2
:101A200069AF0E9B1CAA934204D01C990E980131F9
:101A300011F03BFB14980F9B984203D0169901318B
:101A400011F033FB0425FF265F2441270A233E487B
:101A50003A4600941946CDE90156FFF755FBA023FD
:101A60003A460A2138480097CDE90156FFF74CFB6A
:101A7000A02322460A2134480094CDE90156FFF7FD
:101A800043FBA0233A46304819460094CDE901565D
:101A9000FFF73AFB2D4BBAF854805A7893F800B010
:101AA000B8F1320F5B680D920E9300F2E08308F1FB
:101AB000FF339BB20693BAF85690069BB9F1460FD6
:101AC000AAF8623000F2D18309F1FF339BB2BAF871
:101AD000242058461E49AAF8643045230A91110A69
:101AE000D2B208910992069A024490450C9272DB98
:101AF000BAF864200D990B920A4491456BDB0029DA
:101B00004BD00D9A203B6FF0004702FB03F31F44BC
:101B100013440E9A02EB4707023A02EB4303079382
:101B20000B9B1E4603FB08F537F8024F80B3094BA9
:101B300003EB450CDDE9053103EB450B049B03EB9F
:101B4000450E00230CE000BF80070024880100241C
:101B50004C3F010801000030984201F1010117D00B
:101B600004FA03F2013312F4004FF5D08845F3D99B
:101B7000B145F1D9089A98420EF811204FF00402AD
:101B80000BF81120099A0CF8112001F10101E7D19D
:101B9000079B45440136BB42C6D1BDF8303098455D
:101BA000069303D808F1FF339BB20693069BAAF86D
:101BB00062300B9B994503D809F1FF339BB20B931D
:101BC0000A9A0B9BAAF8643012F8013F0A92A3F11B
:101BD00020025E2A87D961236A4D1AACCB460E9348
:101BE00000231294C14610930FCD0FC42B682360BD
:101BF000139B4FEA490E109A93420E9B03FB09F286
:101C0000194603F11708059B14BF4FF0000C4FF065
:101C10000A0C03EB4207049B654603EB42020B23CD
:101C20004B450DD259450AEB450402F1010007D29C
:101C3000A48B07F813C0260A02F8136000F81340BB
:101C400001339F2BECD10131774472444145E6D1F9
:101C50000E9B0426FF274C485C1E03F118050A233F
:101C6000224600951946CDE90167FFF74DFAA023FA
:101C700022460A2144480094CDE90167FFF744FA5F
:101C8000A0232A460A2140480095CDE90167FFF7C5
:101C90003BFAA02322463C4819460095CDE901674E
:101CA000FFF732FA129A0E9B52F8041BBAF85490BE
:101CB00006331292354AB9F1140F08919BB251784C
:101CC00092F8008052680D91119200F2C58209F1DC
:101CD000FF3292B2BAF856B0AAF862205B4502D33E
:101CE0000BF1FF339BB2AAF86430089B93F800E035
:101CF000BEF1000F00F09080BAF81E301A0ADBB275
:101D000009920A935B46C3469846AEF12003DAB2C5
:101D10005E2A00F29782BAF8622006925A449145F0
:101D20000C92C0F28F82BAF864200D990B920A448B
:101D30009045C0F2878200294FD00D9A6FF0004085
:101D4000CDF83CE002FB03F318441344119A02EB74
:101D50004000023A02EB430307930B9B194609FB31
:101D600003F230F802EFBBF1000F2FD0084CDDE991
:101D7000055304EB420405EB420C049D05EB4207BE
:101D800000250BE07C3E0108800700249801002418
:101D900001000030AB4503F1010317D00EFA05F640
:101DA000013516F4004FF5D04B45F3D24145F1D241
:101DB000099EAB4507F813604FF001060CF813605D
:101DC0000A9E04F8136003F10103E7D1079B4A441C
:101DD00001318342C5D1DDF83CE0BDF83030994592
:101DE00002D809F1FF339BB2AAF862300B9B9845E9
:101DF00003D808F1FF339BB20B930B9BAAF8643016
:101E0000089A1378734506D112F801EF0892BEF1D3
:101E1000000F7FF47AAFC346109B0E9A01331A323B
:101E2000052B10930E927FF4E3AE0427FF255F2469
:101E30004126AA237748324600941946CDE9017518
:101E4000FFF762F932464FF49B73AA21714800965E
:101E5000CDE90175FFF758F922464FF49B73AA218B
:101E60006C480094CDE90175FFF74EF94FF49B7370
:101E70003246684819460295009400260197FFF7FC
:101E800043F9BAF854502A233146013D6248BAF862
:101E90005640ADB28DF8503003F0A2F86423012211
:101EA00018EE101A5D48013C04F0D0FE8DF8535036
:101EB0002D0A01215848A4B28DF850608DF8516068
:101EC0008DF8525003F08CF83A46642318EE101A3D
:101ED000524804F0BBFE2B2331464F488DF850305A
:101EE00003F07EF86423012218EE101A4B4804F028
:101EF000ADFE8DF85340240A012147488DF850600B
:101F00008DF851608DF8524003F06AF83A46642328
:101F100018EE101A414804F099FE2C2331463E4831
:101F20008DF8503003F05CF818EE101A642301228B
:101F30003A4804F08BFE01214FF41633BAF814200E
:101F400035488AF80C10CAF81030069203F048F8A9
:101F5000334833463349069A01900C300091324998
:101F600004F07EFE314BBAF854905A781878B9F1E3
:101F7000B40F5B680D920E9300F2708109F1FF338C
:101F80009BB20693BAF856B0069BBBF1460FAAF86F
:101F9000623000F268810BF1FF339BB2BAF8242063
:101FA000AAF86430224B110AD2B20A934423089152
:101FB0000992069A024491450C927DDBBAF864209E
:101FC0000D990B920A44934576DB002955D00D9A62
:101FD000203B6FF0004702FB03F31F4413440E9AAB
:101FE00002EB4707023A02EB430307930B9B1E46A3
:101FF00009FB03F537F8024F002839D00D4B03EBEE
:10200000450CDDE9053103EB4508049B03EB450E68
:10201000002315E080070024CC0700249807002443
:102020008C0700247D08000800000030880100248F
:10203000543F010801000030984201F1010117D01E
:1020400004FA03F2013312F4004FF5D08945F3D9B5
:102050005E45F1D2089A98420EF811204FF0040222
:1020600008F81120099A0CF8112001F10101E7D1BB
:10207000079B4D440136BB42BCD1BDF83030994579
:10208000069303D809F1FF339BB20693069BAAF887
:1020900062300B9B9B4503D80BF1FF339BB20B9334
:1020A0000A9A0B9BAAF8643012F8013F0A92A3F136
:1020B00020025E2A7FF67DAFFF260425E1246027FB
:1020C000AA2396483A4600941946CDE90156FFF7EF
:1020D0001BF84FF49B733A46AA2190480097CDE92C
:1020E0000156FFF711F84FF49B732246AA218B4843
:1020F0000094CDE90156FFF707F84FF49B733A4679
:10210000864819460094CDE90156FEF7FDFFBAF85E
:102110005490B9F1B40F00F29C8009F1FF339BB2E7
:102120000693069BBAF856B0AAF862307C4BBBF116
:10213000650F5A7818785B680D920E9300F29180C3
:102140000BF1FF339BB2BAF81E20AAF86430754B2E
:10215000110AD2B20A93452308910992069A0244C1
:1021600091450C9269DBBAF864200D990B920A44F0
:10217000934562DB002942D00D9A203B6FF0004767
:1021800002FB03F31F4413440E9A02EB4707023A83
:1021900002EB430307930B9B1E4609FB03F537F83D
:1021A000024F38B3604B03EB450CDDE9053103EB1F
:1021B0004508049B03EB450E002303E0984201F120
:1021C000010117D004FA03F2013312F4004FF5D0E5
:1021D0004945F3D25E45F1D2089A98420EF8112093
:1021E0004FF0010208F81120099A0CF8112001F1B2
:1021F0000101E7D1079B4D440136BB42CFD1BDF869
:1022000030309945069303D809F1FF339BB206930A
:10221000069BAAF862300B9B9B4503D80BF1FF335A
:102220009BB20B930A9A0B9BAAF8643012F8013FF9
:102230000A92A3F120025E2A90D921B0BDEC028B54
:10224000BDE8F08F4FF0000EDAE54FF0000CFFF71D
:10225000DDBBB423069364E714223BE5B423069365
:1022600090E665236FE7462398E646232FE4322362
:10227000069320E40F23FFF726BB1423FFF718BBB8
:1022800016AB14A8A91C2D2208EE100A0F93149364
:1022900010F089FF149B25481D4400EB440310F8FF
:1022A00014205B782A706B70FFF7D3BA62467446CD
:1022B000D11D961DFFF7A3BA62467446911D561DA7
:1022C000FFF79DBA62460E46744605325119FFF774
:1022D00097BA1CAE80686968AA68EB680FC6FFF7FA
:1022E000CDBA134B0593134B0493FFF79ABB16AB70
:1022F00014A8691C2D220F9308EE100A149310F0F5
:1023000052FF149B1D44FFF7A2BA03263946FFF77C
:1023100076BA02260321FFF772BA00BF80070024B5
:1023200098010024603F010801000030704001085E
:10233000000000C0000000302DE9F04F0128DFF858
:10234000DCB22DED028B9BB0B0EE408A0C900E916A
:1023500000F0DD81A54ABBF854300D92A44ABBF8C9
:1023600056A00492A34A0592DFEDA37A03EB830003
:102370000C9A4FEA430868EE277A059902EB82121D
:10238000BBF81CE04FEA001CCDF824B0FDEEE77A64
:10239000123A01EB40105024089212B217EE901A34
:1023A0004FEA1E29DDF810B05FFA8EFEC1F1B401CC
:1023B0000692079102F11E010BEB4C07069A93421D
:1023C0000BD9A2454FF0000600F1010505D900F830
:1023D000129007F8126005F812E001328A42EED13D
:1023E00001349C444044B42CE6D10E9ADDF824B06C
:1023F000002A40F066814FF002094F4617EE902AFE
:10240000BDF91C4012B2002A22EAE27024DD221833
:1024100004FB03F00792049A02EB400E059A02EBCC
:102420004000069A9A420ED2A2450BEB470600F1F5
:10243000010508D9B68B0EF812904FEA162C00F859
:1024400012C005F8126001328A42EBD10134079ABA
:10245000C6444044A242E4D10C9B83EAE375DE0FFC
:10246000A5EBE375092D40F2D083632D40F2328154
:10247000B5F57A7FC0F0D78342F20F739D4240F2E8
:10248000CF832B460124AC4608E0BA4240F23B81A0
:102490008A42C0F03281AA4240F2998357491A46D3
:1024A0005748A646A1FB0313564F82425649574D43
:1024B0004FEA533304F10404E7D8214665460EF190
:1024C000030416AB31442D2214A81193149310F079
:1024D0006AFE149B4E491E4434444E4B64222846E7
:1024E000023CA3FB05735B0902FB13521D4642F23B
:1024F0000F7301EB420711F81220984262707A784C
:10250000A270EAD8B0F57A7F80F0EF803035357070
:10251000089B149A0A33BBF854900F929BB20D9A01
:102520004B45517892F800A052680D91109202D359
:1025300009F1FF339BB2BBF85680ABF86230B8F1BB
:10254000BE0F00F2C58008F1FF339BB2ABF86430D8
:102550000F9B1E78002E00F0A680BBF81E30574659
:102560000F9ACDF82CB0B34609921A0ADBB2079243
:102570000893ABF12003DAB25E2A00F2A6800B9931
:10258000B1F8622006923A4491450C92C0F29D80C7
:10259000B1F864200D990A920A449045C0F29580E2
:1025A000002960D00D9A6FF00045CDF838B002FBDD
:1025B00003F31D441344109A02EB4505023A02EB63
:1025C00043030A9A9B46144609FB02F035F802CFF2
:1025D000002F41D0049A104E02EB400A059A06EBF8
:1025E0004006069B02EB400E00221DE098010024ED
:1025F000000000C0000000300000C8425917B7D1E9
:102600009F8601003F420F0080969800FFE0F5058D
:10261000704001081F85EB51010000308007002445
:10262000974203F1010317D00CFA02F1013211F4C1
:10263000004FF5D04B45F3D24445F1D2079997426C
:102640000EF813104FF001010AF81310089906F85C
:10265000131003F10103E7D1AB45484404F1010431
:10266000B4D1DDF838B0BDF83030994502D809F161
:10267000FF339BB20B9AA2F862300A9B984503D8AD
:1026800008F1FF339BB20A93DDE90A23A3F8642023
:10269000099A13785B4506D112F801BF0992BBF184
:1026A000000F7FF466AF0F9B119A934204D01699E6
:1026B0000F98013110F0F9FC1BB0BDEC028BBDE8A6
:1026C000F08F4FF00A094F4698E64FF0000BDFE716
:1026D000BE233BE716ABB11C2D2214A81193149313
:1026E00010F061FD149BA9491E4401EB450311F84C
:1026F00015205B78327073700AE765460EF10601AB
:102700000EF10504DDE665460EF10501D9E602236A
:102710000425FF26EE271C461A4619465846009700
:10272000CDE90156FEF7F0FC224621464FF49F7397
:1027300058460094CDE90156FEF7E6FC3A4621469C
:102740004FF49F7358460097CDE90156FEF7DCFC25
:102750004FF49F7300972027224619465846CDE92B
:102760000156FEF7D1FC23462246214658460097E3
:10277000CDE90156FEF7C8FC224621464D235846B6
:102780000094CDE90156FEF7BFFC21464D233A46A1
:1027900058460097CDE90156FEF7B6FC4D237C491B
:1027A0002246584600970C460D911946CDE9015630
:1027B000FEF7AAFCBBF854A062786368BAF10A0F6E
:1027C00020781092119340F208820A23BBF85690A9
:1027D0001C46B9F10F0FABF8624000F20A8209F112
:1027E000FF339BB2BBF824206A49ABF86430542312
:1027F0000A91110AD2B2CDF824B0A34606910792ED
:10280000654A0492654A05920BEB000292450F92CD
:102810006ADB099A1099B2F864200B920A44914538
:1028200062DB002942D0109A203B6FF0004702FB88
:1028300003F31F441344119A02EB4707023A02EBD9
:10284000430308930B9B1E4603FB0AF537F8024F20
:1028500038B3534B594603EB450C049B03EB450837
:10286000059B03EB450E002303E0984201F10101B3
:1028700017D004FA03F2013312F4004FF5D08A4561
:10288000F3D9B1454FF00402EFD908F8112098426E
:10289000069A0EF81120079A0CF8112001F1010197
:1028A000E7D1089B55440136BB42CFD1BDF83CB0BF
:1028B000DA4503D80AF1FF331FFA83FB099BA3F81B
:1028C00062B00B9B994503D809F1FF339BB20B9380
:1028D000099B0B9AA3F864200A9A12F8013F0A9206
:1028E000A3F120025E2A8FD9BAF1540FDDF824B08B
:1028F00000F284810AF1FF339BB21946294BB9F1EA
:10290000070FABF862105A7818785B681092119331
:1029100000F2798109F1FF339BB2234AABF86430AE
:102920004D23CDE909B28B460BEB000292450F9285
:102930007CDB099A1099B2F864200B920A44914505
:1029400074DB002953D0109A203B6FF0004702FB44
:1029500003F31F441344119A02EB4707023A02EBB8
:10296000430308930B9B1E460AFB03F537F8024FFF
:10297000002837D00A4B594603EB450C049B03EB68
:102980004508059B03EB450E002313E0704001084A
:10299000980100247C3F0108000000C000000030C6
:1029A0000100003090010024883F0108984201F1A5
:1029B000010117D004FA03F2013312F4004FF5D0ED
:1029C0005145F3D2B1454FF00402EFD908F8112078
:1029D0009842069A0EF81120079A0CF8112001F17E
:1029E0000101E7D1089B55440136BB42BED1BDF879
:1029F0003CB0DA4503D80AF1FF331FFA83FB099B89
:102A0000A3F862B00B9B994503D809F1FF339BB241
:102A10000B93099B0B9AA3F864200A9A12F8013FC2
:102A20000A92A3F120025E2A7FF67EAF0425FF26DC
:102A300020240227F8237D483A4600941946DDF801
:102A400024B0CDE90156FEF75FFB4FF49F733A4681
:102A5000F82176480097CDE90156FEF755FB4FF473
:102A60009F732246F82171480094CDE90156FEF784
:102A70004BFB4FF49F733A466C4819460094CDE9DE
:102A80000156FEF741FBBBF854C0BCF1FD0F00F24C
:102A9000B2800CF1FF339BB21C460D9BBBF85690E5
:102AA0005A7893F800E0B9F10F0F5B68ABF8624019
:102AB0001092139300F2A58009F1FF339BB2BBF88B
:102AC00024207046ABF86430110ACDF824B0D2B29D
:102AD000A34607910892564A0A925722CDE9119CC3
:102AE0000BEB00039C450F936BDB099B1099B3F82C
:102AF00064300B930B44994563DB002943D0A2F16A
:102B00002003109A6FF0004702FB03F31F441344A5
:102B1000139A02EB4707023A02EB430306930B9B1F
:102B20001E460CFB03F537F8024F38B3414B5946AC
:102B300003EB450E049B03EB450A059B03EB45089D
:102B4000002303E0984201F1010117D004FA03F2D7
:102B5000013312F4004FF5D06145F3D24E454FF0EA
:102B60000402EFD20AF811209842079A08F81120BF
:102B7000089A0EF8112001F10101E7D1069B654486
:102B800001369F42CFD1BDF83CB0DC4503D80CF1F3
:102B9000FF331FFA83FB099BA3F862B00B9B994597
:102BA00003D809F1FF339BB20B93099B0B9AA3F84F
:102BB00064200A9B13F8012F0A93A2F120035E2BD5
:102BC0008ED9DDE911A3DDF824B0FFF7CDBB654652
:102BD0000EF107010EF1060473E40AF1FF33BBF8AE
:102BE00056909BB2B9F10F0F1C46ABF862407FF6CE
:102BF000F6AD0F23F6E5FD231C464EE75423194698
:102C00007CE60F235BE7072387E616AB711C2D22BA
:102C100014A81193149310F0C6FA149B1E4475E483
:102C2000032404214DE4022403214AE48007002404
:102C3000943F0108010000302DE9F04FC1B0134668
:102C40000C468046002158220D902AA8DFF81C92DD
:102C5000FF25EE274FF03C0ACDE9124310F038FC77
:102C6000744A754B0424289248462D92734A279340
:102C70002C93319336933792714B724A3393724946
:102C800002953291CDE93B32704B714A3D9302235C
:102C900029921E461A461946CDE90074FEF734FA09
:102CA000324631464FF49F7348460096CDE90145C0
:102CB000FEF72AFA3A4631464FF49F73484600978A
:102CC000CDE90145FEF720FA4FF49F73324648469E
:102CD000194600975F4F15AECDE90145FEF714FA8E
:102CE000434640AADFF888C19B0002EB880E4FF0F4
:102CF0000A080F930FCF0FC63B683221564A1AA815
:102D000033605EF8AC3C0093DCF8003010F01CFD42
:102D10004346424641464846CDF800A0CDE901452C
:102D2000FEF7F2F9424641464FF49B734846CDF810
:102D30000080CDE90145FEF7E7F941464FF49B736A
:102D400052464846CDF800A0CDE90145FEF7DCF932
:102D50004FF49B73424648461946CDF800A0CDE992
:102D60000145FEF7D1F93D4BB9F854B05A7893F8C4
:102D70000080BBF10F0F5B681092119300F2FC8290
:102D80000BF1FF339BB2B9F856A0A9F86230BAF143
:102D90000F0F00F2EF820AF1FF339BB2A9F8643003
:102DA0009DF86830002B00F0E9821AAA2C494046B1
:102DB0000B920691B9F824202A490591110AD2B242
:102DC00009910A92203BDAB25E2A00F28E80B9F8AD
:102DD00062200792024493450E92C0F28680B9F8B1
:102DE000642010990C920A4492457EDB002962D03F
:102DF000109A6FF0004702FB03F31F441344119A2B
:102E000002EB4707023A02EB430308930C9B1E4672
:102E100003FB0BF537F8024F002847D0124B03EBAA
:102E2000450CDDE9063103EB4508059B03EB450E38
:102E3000002323E0B03F0108A83F0108E03F01085C
:102E4000D83F0108EC3F0108C43F0108F83F0108E2
:102E5000B83F01087C3E01080440010890010024AD
:102E6000000000C000000030010000308007002496
:102E70007C070024984201F1010117D004FA03F203
:102E8000013312F4004FF5D08B45F3D9B245F1D997
:102E9000099A98420EF811204FF0040208F8112008
:102EA0000A9A0CF8112001F10101E7D1089B5D4459
:102EB00001369F42AED1BDF838309B4502D80BF1A8
:102EC000FF339BB2A9F862300C9B9A4503D80AF1F4
:102ED000FF339BB20C930C9B0B9AA9F8643012F849
:102EE000013F0B92002B7FF46DAF129B002B40F043
:102EF0003D824FF0080C62460BEB8B10059B069948
:102F00004FEA4B0E03EB4006412501EB400701362B
:102F100003EB40000A24A3450BD9AA4509EB420361
:102F200007D99B8B07F814C0190A00F8141006F88B
:102F300014300134462CEED1013577447044764488
:102F40005F2DE7D14FF041080426FF270A234246B0
:102F5000984819460095CDE90167FEF7D5F8424635
:102F600023460A219348CDF80080CDE90167FEF79A
:102F7000CBF823462A460A218E480095CDE9016701
:102F8000FEF7C2F84246234621468A480095CDE91D
:102F90000167FEF7B9F8884B884A89491298B9F851
:102FA00054A0002808BF114693F800805A78BAF15F
:102FB000140F5B680B911092119300F2D5810AF106
:102FC000FF339BB2B9F856B0A9F86230BBF1460F97
:102FD00000F2C8810BF1FF339BB2B9F824204046C0
:102FE000A9F864304F23110AD2B209910A92203B0A
:102FF000DAB25E2A6AD8B9F8622007920244924592
:103000000E9263DBB9F8642010990C920A44934540
:103010005CDB002941D0109A6FF0004702FB03F3FC
:103020001F441344119A02EB4707023A02EB430391
:1030300008930C9B1E4603FB0AF537F8024F38B382
:10304000604B03EB450CDDE9063103EB4508059BBE
:1030500003EB450E002303E0984201F1010117D074
:1030600004FA03F2013312F4004FF5D05145F3D2C4
:103070005E45F1D2099A98420EF811204FF00402F1
:1030800008F811200A9A0CF8112001F10101E7D18A
:10309000089B554401369F42CFD1BDF838309A4540
:1030A00002D80AF1FF339BB2A9F862300C9B9B4512
:1030B00003D80BF1FF339BB20C930C9B0B9AA9F82E
:1030C000643012F8013F0B92002B90D10D9A0F9BA8
:1030D000134440AA02EB83029B0052F8642C09922D
:1030E000002A00F03C8100227D21CDE90F1227AAA1
:1030F000D3181193344ABAF10A0F0F9B517803F198
:10310000050392F8008052689BB20E91129200F271
:1031100024810AF1FF3292B29B45A9F8622002D8BD
:103120000BF1FF339BB2A9F86430099B1B78002B8D
:1031300000F08780B9F82420110AD2B20A910B92CC
:10314000203BDAB25E2A7CD8B9F862E00EEB0802C6
:1031500092450D9275DBB9F864200E990C920A44E1
:1031600093456EDB002952D00E9A6FF00040CDF8E7
:1031700020E002FB03F318441344129A02EB4000D0
:10318000023A02EB430307930C9B194603FB0AF236
:1031900030F802EFB8F1000F34D0069D0026094C3C
:1031A00005EB420C059D04EB4204089B05EB42072E
:1031B00010E000BF8007002488010024A43F01081C
:1031C000A03F01080100003098010024B04503F140
:1031D000010317D00EFA06F5013615F4004FF5D0AD
:1031E0009A45F3D95945F1D20A9DB04507F81350D5
:1031F0004FF004050CF813500B9D04F8135003F125
:103200000103E7D1079B524401318342C0D1BDF88D
:1032100034309A4502D80AF1FF339BB2A9F86230E4
:103220000C9B9B4503D80BF1FF339BB20C930C9B7B
:10323000099AA9F8643012F8013F0992002B7FF433
:103240007FAF0F9B4FEA4A0CB9F81CE003FB0AF270
:1032500003F114051846069B4FEA1E28079503EB59
:103260004206059B5FFA8EFE03EB4202374611468B
:103270000892822353450BD258454FF0000401F1C8
:10328000010205D201F8138007F8134002F813E099
:103290000133B3F59B7FEDD1013067446144A8420F
:1032A000E7D1139B1099089A8B420CBF0A2502257F
:1032B0000F9CDDF81CE082239A450DD95C4509EB93
:1032C000450002F1010107D2808B06F81350070A6E
:1032D00002F8137001F813000133DC2BECD1013438
:1032E000664462447445E6D1109AFF260F9F8223FC
:1032F000013225481946029610923A46CDE900451A
:10330000FDF702FF3A464FF49B7382211E488DE879
:103310006400FDF7F9FE4FF49B73224682211A48A0
:103320000094CDE90156FDF7EFFE38464FF49B734C
:103330003A462330009419460F901348CDE90156C0
:10334000FDF7E2FE119B53F8042F0992119332B15D
:10335000B9F854A0B9F856B0CCE60A22DCE641B080
:10336000BDE8F08F462338E614232BE64FF00A0C15
:103370006246C1E50F2311E50F2304E5034B0693D5
:10338000034B0593B1E500BF80070024000000C097
:10339000000000302DE9F04F002199B0794800F08D
:1033A00097FE794C2223794E636003F017FE0346A3
:1033B00020462360FDF7D4FBA28B0023744C110A36
:1033C000651CD2B2002704F8131005F8132006F884
:1033D00013700133B3F5963FF4D16B484FF00109F8
:1033E000FEF72CF868494FF416336A488A8A4FF082
:1033F00002080B6181F80C904946039201F0F0FD40
:103400006548664B039A624901900C3000933B4635
:1034100003F026FC642003F0E3FD8DF810808DF8A6
:1034200011705F48049901F0E1F903238DF81470DD
:103430008DF815305B48059901F0D8F98DF8189092
:103440008DF819905848069901F0D0F907238DF8A6
:103450001C708DF81D305548079901F0C7F98DF89B
:1034600020708DF821805248089901F0BFF904239B
:1034700005224B494F4801F0C7F94E4801F0A8FB1F
:1034800009238DF830808DF831300C238DF824908D
:103490008DF825300B2309998DF829300A234648E9
:1034A0008DF82D30BDF830308DF828808DF82C80C7
:1034B000ADF80030DDE90A23FEF722F808233F4A81
:1034C0008DF835303E4B02F130008DF8348010938A
:1034D0003C4B9FED3D0A13933C4B0D99129301F029
:1034E0003DF9364A3A4B02F14000136403F580730C
:1034F000536401F08BFC314A02F1440001F086FC78
:103500002E4A177003F06AFD2C4A129B50605770C8
:1035100017731697002B00F0B9820DF1500B10A90C
:10352000424658469847DDE912312A4A0DF1380CD7
:1035300097689360D368D1609BE803008CE8030030
:1035400092E803008BE803009CE80300CDE91673C2
:1035500082E803001FB1032259465846B8470023AA
:10356000164A13624FF6FF73A2F84830129B1BB144
:1035700010A90322084698470123104A0E4F1373DF
:10358000B8E000BF3408002480070024000000C019
:1035900000000030CC0700248C0700247D080008C0
:1035A0001C0700242D0700243E0700244F07002499
:1035B000600700244C08002474080024E807002455
:1035C000D1080008E106000800000000E506000838
:1035D00001060001F8070024B44B1B78002B40F0D3
:1035E0002281B34B1B78002B40F0A08198F800306B
:1035F00043B1B04A92F8343023B192F83A307F2B7D
:1036000000F03582AC482A2300214FF00008B0F8C2
:1036100054A04C30B0F80A900AF1FF3A8DF85030BF
:1036200001F0DEFC01221FFA8AFA64235946A348FE
:1036300003F00CFB01214FEA1A23A14809F1FF39DD
:103640008DF853A08DF852308DF850801FFA89F90B
:103650008DF8518001F0C4FC042264235946974838
:1036600003F0F4FA2B23414695488DF8503001F0D1
:10367000B7FC012264235946904803F0E7FA012180
:103680004FEA19238E488DF850808DF852308DF80E
:1036900051808DF8539001F0A3FC04226423594615
:1036A000864803F0D3FA2C23414685488DF85030E4
:1036B00001F096FC642301225946804803F0C6FAC3
:1036C0007D4801214FF41633828A4C3000F8401CAB
:1036D00040F83C3C039201F083FC7A484346039A4D
:1036E0000190794879490090744803F0B9FA642050
:1036F00003F076FC764801F04BF83B7B1BB1BB7CBA
:103700007F2B00F01C81734801F042F897F82C30B1
:1037100023B197F832307F2B00F019816E4801F009
:1037200037F897F84C3023B197F852307F2B00F0E0
:1037300016816A4801F02CF897F86C3023B197F89D
:1037400072307F2B00F01381654801F021F8594A4F
:1037500092F8343023B192F83A307F2B00F0968003
:1037600003F03CFC534903464A688860904230D0DD
:1037700001F1400091F848904B6001F023FC4D4A64
:103780004FEA4909034692F849804FFA89F902F154
:1037900044004FEA480849EA03094FFA88F882F8DA
:1037A000489001F00FFC434948EA00000A78C3B290
:1037B00081F849306AB191F8482002F00302022AE8
:1037C00000F0008103F00303022B02D1002A00F075
:1037D0003181DFF8248198F80030D7E9009A7BB175
:1037E00097F83230FF2B3FD0BB7CFF2B00F0C98015
:1037F0003C4B18683C4B1A683C4B1978FFF71CFA95
:1038000097F85230FF2B7FF4E7AE29490B78002B55
:1038100040F0C08098F80020002A71D1234B1B781B
:10382000002B3FF4EFAEDFF8D4A009F101034FF015
:103830000008CAF800305FFA88F12D4801F0DEF97F
:1038400008F10108DAF80010F7EE007A4046A1EB23
:10385000080137EEC00AB1FA81F14909FEF76CFDA3
:10386000B8F1040FE7D1CDE61F4B1E4A10681A6865
:10387000042802F101021A6000F2C4801D4951F8C7
:1038800020108A42B8DB00221A60B5E7137B002BB8
:1038900040F0BA80074A1278002A00F0C780012A57
:1038A0007FF45EAF034A13705AE700BF050000249F
:1038B00070080024E80700248007002498070024EB
:1038C000CC0700248C0700247D080008000000308D
:1038D0007C0800249C080024BC080024DC08002488
:1038E000180800247807002474070024040000242A
:1038F0004C0800243C410108710800247C07002486
:10390000654A908B4FEA102CC0B2002204F813C015
:1039100005F8130006F813200133B3F5963FF4D1F0
:103920005E4B88F800201A7001230B705C4A5146E8
:103930005C4B1068C3F800A0FDF7F6FE62E63B6A38
:10394000002B00F0A7807B6A57489847DBE63B6C6A
:10395000002B00F09F807B6C54489847DEE63B6E5E
:10396000002B00F097807B6E51489847E1E6D7F82E
:103970008030002B00F08E80D7F884304D48984777
:10398000E2E64D4B1A68013A002A1A6044DB454BC7
:10399000186831E7404B988B00234FEA102CC0B2D7
:1039A000002204F813C005F8130006F813200133B1
:1039B000B3F5963FF4D1394B0A7088F80020012204
:1039C0001A7030E79B077FF404AFD1E9082353F85E
:1039D000220090ED087AD0ED077AB4EEE77AF1EEA6
:1039E00010FA03DAD0ED097A77EE277A036BC0ED8F
:1039F000087ACDED107A002B4CD0436B10A92830FB
:103A00009847E6E600213CE79369002B42D0D36952
:103A100002F110009847A3E6224A1068042832D821
:103A2000264A52F82020013A1A60E5E60123244A8A
:103A3000137095E6224BD3E9082353F8220090ED4A
:103A4000087AD0ED067AB4EEE77AF1EE10FA03D9EF
:103A5000D0ED097A77EE677A036BC0ED087ACDED89
:103A6000147ABBB1436B594628309847B1E6154BE1
:103A7000197881F0010119700F4B1A68094B186809
:103A8000FFF7DAF8BEE54FF0FF32CDE717990DF1F9
:103A9000500B4AE50FF014FB8007002405000024BA
:103AA0007C070024780700248C080024AC0800243C
:103AB000CC080024EC080024740700243C410108D1
:103AC000E8070024040000242DE9F84FDD4CDE4D0A
:103AD000DE48DF49FCF78CFE22462946DB480FF022
:103AE000DFFADC48DC49FCF783FE22462946D94848
:103AF0000FF0D6FAD948DA49FCF77AFE2246294671
:103B0000D648D84E0FF0CCFAD748D849FCF770FE0B
:103B100022462946D4480FF0C3FA3046D449DFF88C
:103B2000D483FCF765FE224629463046DFF8C89369
:103B30000FF0B6FA3146CF48FCF734FE4146CD4887
:103B4000CD4FFCF715FE22462946CA480FF0A8FAC9
:103B500031464846DFF8A4A3FCF724FE3946484620
:103B6000DFF89CB3FCF704FE2246294648460FF0D6
:103B700097FA31465046DFF88C93FCF713FE504617
:103B8000BE49FCF7F5FD2246294650460FF088FA5B
:103B900031464846BA4EFCF705FE4846B949FCF79F
:103BA000E7FD2246294648460FF07AFADFF8589397
:103BB0003046B549FCF71CFE2246294630460FF038
:103BC0006FFA31464846DFF844A3FCF7EBFD414667
:103BD0004846FCF7CDFD2246294648460FF060FADC
:103BE0003146AA48FCF7DEFD3946A848FCF7C0FD7F
:103BF00022462946A5480FF053FA31465046DFF8D1
:103C00001093FCF7CFFD5046A149FCF7B1FD2246C9
:103C1000294650460FF044FA314648469D4EFCF77F
:103C2000C1FD48469C49FCF7A3FD2246294648466B
:103C30000FF036FADFF8DC9230469849FCF7D8FDF1
:103C40002246294630460FF02BFA31464846DFF827
:103C5000C8A2FCF7A7FD41464846FCF789FD22466D
:103C6000294648460FF01CFA31468D48FCF79AFD6C
:103C700039468B48FCF77CFD2246294688480FF0E0
:103C80000FFA31465046DFF89492FCF78BFD504610
:103C90008449FCF76DFD2246294650460FF000FA94
:103CA00031464846DFF878A2FCF77CFD48467E495D
:103CB000FCF75EFD224629464846DFF868920FF081
:103CC000EFF931465046794EFCF76CFD49465046B7
:103CD000FCF74EFD2246294650460FF0E1F9DFF889
:103CE00048A230467249FCF783FD224629463046F9
:103CF0000FF0D6F931465046FCF754FD4146504688
:103D0000FCF736FD2246294650460FF0C9F93146E8
:103D10006848FCF747FD39466648FCF729FD22460E
:103D2000294664480FF0BCF931465846DFF8FCA13B
:103D3000FCF738FD58466049FCF71AFD2246294633
:103D400058460FF0ADF9314650465C4EFCF72AFD5F
:103D500050465B49FCF70CFD2246294650460FF0C1
:103D60009FF9DFF8CCA130465649FCF741FD2246C9
:103D7000294630460FF094F931465046FCF712FDC3
:103D800041465046DFF8AC81FCF7F2FC224629465A
:103D900050460FF085F931464B48FCF703FD394694
:103DA0004948FCF7E5FC2246294647480FF078F9D8
:103DB00031464046454FFCF7F5FC49464046FCF786
:103DC000D7FC2246294640460FF06AF93146404862
:103DD000FCF7E8FCDFF860813E493D48FCF7C8FC91
:103DE000224629463A480FF05BF931464046FCF737
:103DF000D9FC40463849FCF7BBFC224629464046E0
:103E00000FF04EF931463846FCF7CCFC38463349C2
:103E1000FCF7AEFC22462946384600250FF040F953
:103E20002F4822462F490560456105620FF038F999
:103E30002D4A4FF448412D482D4B918214210367A0
:103E40007CE000BF0000002467320108BC060024AB
:103E500010400108D406002414400108EC06002498
:103E600018400108C4040024040700241C40010871
:103E700020400108AC040024A83F0108E03F0108ED
:103E80006404002438400108D43E010834040024AE
:103E900040400108CC0500244C400108EC3E0108DC
:103EA0009C050024EC3F0108F83F0108540500245C
:103EB000C43E010824050024B03F0108A4060024E4
:103EC000B83F0108CC3E0108740600245C060024BB
:103ED0004406002458400108604001086840010879
:103EE00034080024DD06000880070024FC080024B4
:103EF0000AD7233C3040010894040024F404002431
:103F00000C050024DC0400244C0400241C040024C0
:103F10007C040024B4050024E4050024FC050024EE
:103F200084050024D83F01083C0500246C050024CA
:103F30008C0600242C0600241406002482F8591054
:103F40000D21C0F8A030C0F83831C0F86831C0F891
:103F50000032C0F83032C0F8C832C0F8F832C5625A
:103F6000C564157315619561A2F86050A2F866509A
:103F7000C0F88C50C0F8BC50C0F8F450C0F81451D0
:103F8000C0F85451C0F88451C0F8BC51C0F8DC519D
:103F9000C0F81C52C0F84C52C0F88452C0F8A45269
:103FA000C0F8E452C0F8145382F85A102246C0F800
:103FB0002C330E49C0F848530FF072F80C482246D3
:103FC0000C49056205640566C0F88050C0E90055DB
:103FD0000FF066F80848224608498561C562C0E9C5
:103FE0000955BDE8F84F0FF05BB800BF410A000863
:103FF00074080024FD090008E8070024D909000816
:10400000F0B5032399B000270125129306462C4BE7
:1040100009A81595CDE90E7340F20453ADF8403070
:10402000284BCDE91357099300F0F0FE09A800F0E2
:10403000C9FF002836D1244B04AF04460090CDF8C8
:1040400042301023394604958DF820301F4BCDE9BE
:104050001650CDE906506846059301F041F9082352
:10406000009A01A909A8ADF804508DF806400994FA
:104070000295039300F0E4F800230EA9384630249B
:10408000049301F081FE03224FF07E5309A906F14B
:1040900014000B930C93CDE90942049A00F00CFB39
:1040A00019B0F0BD40F60132074B169704AFADF8DA
:1040B00024200998CDF84230179500F081F8DBE70D
:1040C0000402040403030001040604030704010BB3
:1040D0002DE9F04304462DED028B83B0002948D032
:1040E000012140F2011200230091ADF804208DF867
:1040F0000630304A0126304B271D304904F129088B
:10410000626040F20272A36040F60663E16004F16F
:1041100025092682A4F8252084F82760A4F82930F0
:1041200084F82B6003F0CAF86946054648B304F1E9
:1041300030008DF8066003F01FF8072D34D104F12C
:1041400014052046FFF75CFF284600F0F1FA2846E8
:10415000B0EE408A00F0E8FAD0ED007AF8EE677A27
:1041600088EE277A84ED0E7A03B0BDEC028BBDE8B1
:10417000F08340F2011300918DF80610ADF8043081
:10418000B7E704F1300002F0F7FF3946204601F0AE
:10419000EFFA484600F03AFE404600F037FE04F1E0
:1041A000120000F077F9CAE73946204601F0E0FA3C
:1041B000C5E700BF0508050905070506050A060647
:1041C00010B584B003460124ADF8040003A8ADF88F
:1041D0000C30ADF80E4000F019FE214603A800F0A7
:1041E000FFFE204602F0FCFE002103A800F0F8FECE
:1041F000204602F0F5FE214603A800F0F1FE04B0CF
:1042000010BD00BF10B5C2F3002384B00C46017C82
:104210008DF80D2043EA4402FA2402238DF80C2085
:1042200003AA009401F0F2F818B10124204604B06A
:1042300010BD04460A2002F0D3FE204604B010BD93
:10424000034670B543F8042B044684B007C983E8DD
:104250000700A37983B91A210B461E22FA2523747D
:104260002046ADF80C20022303AA009501F0CEF8F9
:1042700028B1012004B070BD1B210B46EDE70A20D8
:1042800002F0AEFE4FF4B85200950223ADF80C20B8
:10429000204603AA217C01F0B9F80028E9D10A20C0
:1042A00002F09EFE41F2027200950223ADF80C204E
:1042B000204603AA217C01F0A9F80028D9D10A20C0
:1042C00002F08EFE042200950223ADF80C20204659
:1042D00003AA217C01F09AF80028CAD10A2002F032
:1042E0007FFE062200950223ADF80C20204603AA8B
:1042F000217C01F08BF80028BBD10A2002F070FE6F
:1043000041F2082200950223ADF80C20204603AAB2
:10431000217C01F07BF80028ABD10A20064602F090
:104320005FFE0095022303AA217C2046ADF80C60B5
:1043300001F06CF800289CD1304602F051FE009547
:1043400022790C232046002A8DF80C3003AA4FF066
:10435000020314BF622142218DF80D10217C01F06F
:1043600055F8002885D1304602F03AFE2279D4E98A
:1043700002310B43DBB20AB943F0400362790AB160
:1043800043F020030E22FA258DF80D3020460095CB
:1043900002238DF80C2003AA217C01F037F80028B5
:1043A0007FF467AF0A2002F01BFE10220095022363
:1043B000ADF80C20204603AA217C01F027F8002844
:1043C0007FF457AF0A2002F00BFE12210095022362
:1043D000ADF80C1003AA217C204601F017F8002844
:1043E0007FF447AF0A2002F0FBFD0122092120469D
:1043F000FFF708FF003818BF01203BE7F0B5102396
:1044000087B0234C012200250126002702A920465F
:104410000195CDE902234FF48052CDE9046709F0FC
:104420005FFB642003F0F0F902A94FF480522046AC
:10443000CDE9046702261027CDE9026709F050FB99
:104440000322102302A92046CDE9022300230422DF
:10445000CDE904234FF4805209F042FB40F23223AD
:10446000042202A9019310232046CDE90223019AD8
:10447000012305924FF48052049309F031FB40F67A
:104480000601204609F04CFB284607B0F0BD00BFEE
:10449000680C00241C4B00221C494FF0400C30B526
:1044A000054689B00220596007219A601A620124EA
:1044B000DA620A224FF4006EDC6006922022CDE917
:1044C000000104200821CDE9020103201021CDE9DB
:1044D000040108206946C3E904024FF4C072181DA4
:1044E000C3E906C24FF48052C3E909E209F0CEFAEB
:1044F00038B92846FFF782FF003818BF012009B0FD
:1045000030BD204609B030BD640C0024404100524B
:10451000614A0021D0B513688EB00A91002B40F09B
:10452000B9805E4B01214FF683700C24116002218B
:10453000D3F8D4200026032742F48052C3F8D420B5
:10454000D3F8D42002F480520092009AD3F8E020ED
:1045500042F01002C3F8E020D3F8E02002F010028D
:104560000192019AD3F8E02042F04002C3F8E02023
:10457000D3F8E02002F040020292029AD3F8E02041
:1045800042F00802C3F8E020D3F8E02002F008026D
:104590000392039AD3F8E02042F48072C3F8E0203B
:1045A000D3F8E02002F480720492049AD3F8E02059
:1045B00042F08002C3F8E020D3F8E02002F080024D
:1045C0000592059AD3F8E02042F02002C3F8E020DB
:1045D000D3F8E02002F020020692069AD3F8E020F9
:1045E00042F00402C3F8E020D3F8E0300C9403F06A
:1045F000040307930323079A0B93CDE9080108A945
:10460000274804F087FF48F23712022308A92548FB
:104610000C94CDE90823CDE90A6704F07BFF4CF246
:104620000372022308A920480C94CDE90823CDE9A0
:104630000A6704F06FFF40F2FF62022308A91B48DB
:104640000C94CDE90823CDE90A6704F063FF4FF627
:104650000C72022308A916480C94CDE90823CDE971
:104660000A6704F057FF4FF63F02022308A91148DA
:104670000C94CDE90823CDE90A6704F04BFF202212
:10468000022308A90A480C94CDE90A67CDE908235A
:1046900004F040FF0EB0D0BD600C0024004402586E
:1046A0000010025800180258000C0258002002584E
:1046B000001C02580014025830B5184C154685B03D
:1046C000046004F1080EEC460FC98EE80F00D4ED2B
:1046D000047AF5EEC07A8CE80F00F1EE10FA1ADDDC
:1046E000B7EE006A94ED057A27EE277AC6EE276AC0
:1046F00084ED0D7AC4ED0C6A6DB1204640F8185F68
:1047000001F03AFC064903690020064A2162A262D0
:10471000E36005B030BD012005B030BD9C0C002425
:10472000007802300058023000680830704700BF3F
:104730000068183001F022BC10B4074B4FF07E51D6
:1047400030240022032019619C60D8605DF8044B7E
:104750005961C3E9062270479C0C002470B50446D9
:1047600082B0C1F30726CDB2ADF8041002F036FCDA
:104770004FF480724FF001232060A01DA571A2802C
:10478000E671A36002B0BDE8704000F03FBB00BF1F
:1047900038B5044602F022FC0022236822718342CD
:1047A00010D00122A57AE37A954020602271A01DE5
:1047B0006DB243B900F006FC40B22843C0B27F2876
:1047C000A0720AD038BD00F0FDFBB0FA80F04009BD
:1047D0002843C0B27F28A072F4D102F0FFFB07EE9D
:1047E000900AF8EE677AC4ED037A38BD82B04FF0D4
:1047F000000C0323ADF80410BDF8042080F810C0AD
:104800000280438002B070472DE9F04FBE4E002574
:104810008FB0BE4C037006F1400342600746019220
:104820008846202229463046C4F85831C4F85461DD
:10483000CDE90355CDE90555CDE90755CDE9095534
:10484000CDE90B550EF044FE2022294604F599705F
:10485000C4F82151C4F82551C4F82951C4F82D5188
:104860000EF036FE019B84F8385284F820317A68C5
:10487000002A5FD02B464146B64604F5907599460E
:104880004FF0010A03EB0310D1F800B0D1F8048017
:104890000133D1F808C02218CE6844F800B0C2F83D
:1048A0000480C2F808C0D660087C2EF8029B107401
:1048B0000A7C05F8012F002A69D07A68113184F842
:1048C00038A29A42DED84FF4802291489DF80430F5
:1048D00008214FF000084FF00009C4F8743100239C
:1048E000C4E957020122C4F8643184F87031C4E984
:1048F0005A2194F83812C4E9608981B3C4F8882138
:10490000002284F8713184F878313B78C4E963225D
:10491000A3B3012200200121013B84F89421C4E9C2
:104920006801082B2CD8DFE803F0ABB0B5BABFC4E0
:10493000C9CFD6009DF804300121C4F86421C4F821
:1049400074314FF4802384F87021714AC4E95723ED
:1049500008230022C4E95A130023C4E96023012379
:10496000002284F87131002384F878310323C4F8DD
:1049700088313B78C4E96322002BCAD184F8943192
:10498000644803F079FB034638B1FFBEFEE77A685E
:1049900011319A423FF676AF95E703A95D4803933C
:1049A00003F0C8FC0546002868D1022240F2FF73DC
:1049B000CDE9082300230422CDE90A2394F820310D
:1049C000002B00F0D5804FF0060921E0022B00F00B
:1049D0008980012B40F0C4809AF80130012B00F04F
:1049E000C180002B4C4B18BF002306A94948CDE9D4
:1049F000063902F06DFF002840F0BF80013594F8C1
:104A00002031EDB2AB4240F2B380444B53F82590D5
:104A10002FB207EB071704EB070A504600F0F6F930
:104A200005EB051323441B7C042B7DDC022B00F3D8
:104A3000918000F08D806319002283F81021E35DDE
:104A4000002BC3D19AF80130062B00F08580072B8C
:104A500000F08A80022B00F09680032B00F09580F6
:104A6000002B00F09680012B00F09180042B00F0C9
:104A70009280052B2A4B18BF0023B6E7FFBEFEE746
:104A800003224023C4E966237AE707226023C4E9AE
:104A9000662375E70F228023C4E9662370E71F228F
:104AA000A023C4E966236BE73F22C023C4E9662341
:104AB00066E77F22E023C4E9662361E7FF224FF423
:104AC0008073C4E966235BE740F2FF124FF49073F2
:104AD000C4E9662354E740F2FF324FF4A073C4E9FF
:104AE00066234DE79AF80130042B37D0052B3DD0D3
:104AF000002B40D0012B42D0022B42D0032B094B7C
:104B000018BF002371E700BF00980230D80C0024C2
:104B100000200240340E00240002B025504101085C
:104B20000000B84F0020903603233E1D04EB05081B
:104B30004FF0000B264488F8103130460BF1010B82
:104B400000F064F998F8103104365B45F5DC76E73F
:104B50000123EAE70223E8E7104B46E7104B44E75E
:104B6000002342E70F4B40E70F4B3EE70F4B3CE77C
:104B70000FB0BDE8F08F0E4B37E7FFBEFEE70D4BE1
:104B800033E70D4B31E70D4B2FE70D4B2DE70D4B69
:104B90002BE70D4B29E70D4B27E700BF0800900CD2
:104BA0001000C0102000F0148000501D0001802172
:104BB0000004002A0008302E001060320040C03A85
:104BC0000080F03E00005247000021430000844B6B
:104BD00038B5094C40F2FF724FF0011104F5AE7583
:104BE000284603F055FB94F82021D4F854112846A8
:104BF000BDE8384003F0C0B8D80C0024064B0F299C
:104C0000D3F8543198BF03EB41031B8800EE103AF0
:104C1000BBEEC80A704700BFD80C0024214B0268C5
:104C20009A4200D07047204A00232048D2F8D8107A
:104C300030B51F4C41F0200183B0C4F8C0010920F9
:104C400004F5E075C4E971034FF48060C2F8D81030
:104C5000D2F8D8204FF40061C4E9733094F83802D8
:104C600002F02002C4F8D4114FF40051984201928E
:104C70002846C4F8D811C4E97833019B14BF002337
:104C80004FF48073C4F8DC3103F07AFD08B1FFBE45
:104C9000FEE704F5AE73C4F8A851C4F8F83103B0C8
:104CA00030BD00BF002002400044025840000240D6
:104CB000D80C0024014804F0DBB800BF980E002493
:104CC00002682DE9F84F4B4B9A4201D0BDE8F88FAE
:104CD000494D95F83832002BF8D095F82031002B4B
:104CE00077D0002405F10C0905F5997605F5907744
:104CF000A04613E003F0010117F811BCA9F1080068
:104D000000F06EF9BBF1010F25D895F82031013480
:104D100009F111090236A2B293422BD917F8012FDB
:104D2000002AF4D0D5F854310021327833F8140039
:104D3000D5F8583103EB041323F8120033880133FC
:104D40009BB233805FFA83FA3A789A42D2D88A4685
:104D5000A6F80080D0E7CAF34001A9F1040000F0F2
:104D60003FF9BBF1020FCAF38001CED0484600F0F4
:104D700037F9CAE7002395F83802204909229842FA
:104D8000C5F8C8314FF48060C5F8C011C5F8C4211A
:104D90004FF400614FF40052C5F8CC3108BF4FF416
:104DA0008073C5F8D821C5E9740100221448C5E90B
:104DB0007732C5F8E42103F0E3FC08B1FFBEFEE75B
:104DC00095F82021D5F854110E48BDE8F84F02F0AF
:104DD000D3BF0A4909224FF48060C5F8C831C5E93C
:104DE00070124FF400614FF40052C5E97330C5E909
:104DF0007512DAE700200240D80C0024400002407F
:104E0000980E0024340E0024704700BF8378022BD4
:104E100030B504468FB037D0032B33D0012B31D0BF
:104E200000230A93E378012B2AD0022B28D00023F9
:104E30000B93002320460C9302F0C4FB054620464A
:104E400002F0C8FB23780990082B13D8DFE803F0A1
:104E50001F3245586B7E91A40500594BD3F8E020D2
:104E600042F48072C3F8E020D3F8E03003F480739A
:104E70000893089B09A9284604F04CFB0FB030BDED
:104E80000B93D6E70A93CDE711230A93CAE74C4B5D
:104E900009A92846D3F8E02042F00102C3F8E02037
:104EA000D3F8E03003F001030093009B04F032FBE1
:104EB0000FB030BD424B09A92846D3F8E02042F09C
:104EC0000202C3F8E020D3F8E03003F002030193BC
:104ED000019B04F01FFB0FB030BD394B09A92846D8
:104EE000D3F8E02042F00402C3F8E020D3F8E03029
:104EF00003F004030293029B04F00CFB0FB030BDDF
:104F00002F4B09A92846D3F8E02042F00802C3F845
:104F1000E020D3F8E03003F008030393039B04F090
:104F2000F9FA0FB030BD264B09A92846D3F8E02086
:104F300042F01002C3F8E020D3F8E03003F0100391
:104F40000493049B04F0E6FA0FB030BD1C4B09A992
:104F50002846D3F8E02042F02002C3F8E020D3F83E
:104F6000E03003F020030593059B04F0D3FA0FB063
:104F700030BD134B09A92846D3F8E02042F0400287
:104F8000C3F8E020D3F8E03003F040030693069B1B
:104F900004F0C0FA0FB030BD094B09A92846D3F878
:104FA000E02042F08002C3F8E020D3F8E03003F0C4
:104FB00080030793079B04F0ADFA0FB030BD00BF2C
:104FC0000044025838B5054602F0FCFA044628466B
:104FD00002F000FB01462046BDE8384004F0A2BCC8
:104FE00070B506460D4602F0EDFA0446304602F072
:104FF000F1FA2A1E0146204618BF0122BDE8704082
:1050000004F096BC0023122270B586B0CDE90223CD
:1050100004930368032B01D804230593061D841D04
:10502000304602F0CFFA0546304602F0D3FA034686
:1050300001A92846019304F06DFA204602F0C2FA55
:10504000034620461C4602F0C5FA01A90346204645
:10505000019304F05FFA06B070BD00BF634A0368B5
:10506000934210B58CB028D0614A934258D0614A1F
:10507000934200F09480604A934201D00CB010BD7E
:105080005E4C5F48D4F8E03043F00203C4F8E030EF
:10509000D4F8E03003F002030A930A9BFFF7B2FF53
:1050A000D4F8F43043F08003C4F8F430D4F8F4308A
:1050B00003F080030B930B9BE0E7504C5148D4F86E
:1050C000E03043F00203C4F8E030D4F8E03003F0FD
:1050D00002030193019BFFF795FFD4F8E83000220B
:1050E0001F2043F400131146C4F8E830D4F8E83028
:1050F00003F400130293029BD4F8D83043F0010369
:10510000C4F8D830D4F8D83003F001030393039BDC
:1051100003F084F91F200CB0BDE8104003F0BCB9C7
:10512000364C3948D4F8E03043F08003C4F8E0301E
:10513000D4F8E03003F080030493049BD4F8E0300B
:1051400043F00203C4F8E030D4F8E03003F0020387
:105150000593059BFFF756FFD4F8E8300022212085
:1051600043F480031146C4F8E830D4F8E83003F47F
:1051700080030693069BD4F8D83043F00103C4F8AB
:10518000D830D4F8D83003F001030793079B03F01D
:1051900045F921200CB0BDE8104003F07DB91B4853
:1051A000FFF730FF154B00224820D3F8E8401146A6
:1051B00044F40004C3F8E840D3F8E84004F40004E1
:1051C0000894089CD3F8D84044F00104C3F8D840B0
:1051D000D3F8D83003F001030993099B03F01EF9BB
:1051E00048200CB0BDE8104003F056B90054004010
:1051F00000580040005C0040001C00580044025869
:10520000A0110024180F0024F00F0024C81000245F
:105210002DE9F0431A4B87B000254FF010099E4648
:10522000EC46184BFF22E04667461A700EF118064E
:105230000EF13004CDE90055CDE90255ADF80090EE
:10524000BCE80F00CDE90455AEE80F009CE8030070
:105250000095ADF800908EE80300B8E80F000FC687
:105260009CE803000095ADF8009086E803000FCF9E
:105270000FC49CE8030084E8030007B0BDE8F08396
:1052800008000024140F002410B5EFF3108472B648
:10529000084B1A78120602D504B962B610BD1B7805
:1052A000D82205485BB202FB0300143003F0E0FD96
:1052B000F2E700BF140F0024180F0024014805F086
:1052C000CFB900BFA40F0024014805F0C9B900BF41
:1052D0007C100024014805F0C3B900BF541100241C
:1052E0002DE9F0430F68D8243F4D85B007FB04F447
:1052F000032F05EB0403036040DCCB680E46012B53
:105300003CD84DD04FF0D808B646DFF8FC9008FBEB
:105310000758BEE80F00C446ACE80F00DEF80030C6
:105320000DF1100ECCF80030D8F808C099E80F0045
:105330000EE90F000EEB8703BCF1010F53F8103C90
:10534000C8F88C3031D0BCF1020F42D0BCF1000F54
:1053500035D0317C8C34D823002201202C4403FB2F
:1053600007534900C3E92602C3F894102046C3E955
:105370002822C3E92A2204F065FF18B1012005B0F4
:10538000BDE8F0830146204605F076F90028F5D106
:105390000146204605F09AF9003818BF0120EEE7D3
:1053A0000B7C103B672BADD9E8E701F085FF0F4B75
:1053B00098420CBF0E4B0F4BC8F89030C9E701F074
:1053C0007BFF0A4B98420CBF0B4B0C4BC8F890303C
:1053D000BFE701F071FF054B98420CBF084B094B2A
:1053E000C8F89030B5E700BF180F0024000E27075B
:1053F0002D0FB0303211D0205F4390608A62E030D0
:10540000200BA0101A098010903E01082DE9F041F0
:10541000D0F8008082B00D4617461E4608F18C0475
:10542000204605F025F92028FAD1D8F80C3073B9B8
:105430006D002046089C33463A46A9B2009404F019
:1054400057FF003818BF012002B0BDE8F081089B6B
:1054500032463946204605F01FF8F2E7044B102289
:105460001A7483F8E82083F8C02183F898227047E3
:10547000180F002430B5002395B04FF48071062238
:1054800004460B9306921393CDE90C13CDE90E332A
:10549000CDE9113301F012FF07282BD004F11005DC
:1054A00041F2883206A9284605F022FF28B10123DF
:1054B000184684F85C3015B030BD0222022306A9DC
:1054C0002846CDE9002310220123CDE90223002242
:1054D0004FF48003CDE9042305224FF08073069238
:1054E0006A460F9341F2883306F06EF80028DED149
:1054F00015B030BD0323012084F85C3015B030BDF9
:1055000070B50023A4B04FF080724FF4807504464C
:10551000ADF806300D93CDE910320122CDE90E53DE
:10552000CDE91223CDE91433002943D0F02300F153
:10553000100508AEADF80630C02341F2883231467E
:105540002846089305F0D4FE28B10123184684F8B4
:105550005C3024B070BD41F288320DF1060128465E
:1055600005F030FF03460028EFD105224FF480718B
:105570001E93284616924FF080721B9321931F9220
:1055800002AA9FED1F7BCDE91C13CDE922338DEDDF
:10559000027B9FED1D7B41F2883316A98DED047BC4
:1055A0009FED1B7B8DED067B06F00EF80028CCD11D
:1055B00024B070BD00F1100508AE612341F28832BD
:1055C00031462846089305F093FE0028BDD141F2EC
:1055D00088320DF10601284605F072FF0028B4D18B
:1055E000BDF80630204623F0780343F04003ADF8C1
:1055F0000630FFF73FFF00289ED0A6E7AFF30080FC
:105600000000000001000000100000000100000088
:1056100000000000000040002DE9F04F00234FF48F
:10562000807501264FF0807804462DED028BABB0DB
:105630008DF8073013932193299314950E96CDF886
:105640005C80CDE91533CDE91863CDE91A33CDE996
:105650002253CDE92433CDE9273306231C9301F0EF
:105660002DFE072808D004F1100741F288321CA94A
:10567000384605F03DFE40B10123184684F85C3001
:105680002BB0BDEC028BBDE8F08F4FF0020A4FF05B
:10569000020B4FF0050941F2883308AA1CA93846CD
:1056A000CDF89480CDF870909FED2D8BCDE908ABAF
:1056B0004FF0000A4FF4800B8DED0A8BCDE90CAB57
:1056C00005F082FF0028D7D141F2883238460EA972
:1056D00005F00EFE0028CFD1402341F288320DF1B3
:1056E000070138468DF8073005F06CFE0028C3D15D
:1056F00041F288330EA902AA3846CDF83890CDF889
:105700005C809FED197B8DED048BCDE906AB8DEDB3
:10571000027B05F059FF03460028ADD1CDF870900B
:105720004FF00109CDF894804FF00008219308AAAA
:1057300029931CA938462295CDE92333CDE9273397
:1057400041F288338DED0A8BCDE90CABCDE90889A8
:1057500005F03AFF002893D0304684F85C608FE76C
:1057600010000000010000004000000040000000A8
:105770002DE9F043624CA3B00D46046001F09EFD9C
:10578000072800F0A980286823466968AA6807C32B
:105790001E46AB8926F8043B3046257B677B05F027
:1057A00089FDE0B9574B012D4FF00108E0612361FD
:1057B00014BF4FF480134FF40003C4E9058893FA33
:1057C000A3F3B3FA83F34FF48079013BC4F8249038
:1057D000C4E90B003046236205F000FD38B1012218
:1057E000134684F85C20184623B0BDE8F083662396
:1057F0000B90139041F2883206A90693CDE90C90E4
:10580000CDE90E00CDE91100304605F071FD00280C
:10581000E5D1992341F2883206A93046069305F076
:1058200067FD0028DBD105231C9019906A4614936C
:105830004FF08073219014A91D9341F288339FED9E
:105840002A7BCDE91A90CDE91F008DED007B9FEDFD
:10585000287B30468DED027B9FED277B8DED047B11
:1058600005F0B2FE0028BAD129462046FFF748FECF
:105870000028B4D12046FFF7CFFE03460028AED162
:10588000002FB0D1189330460027002606AA14A98D
:10589000CDF86890CDE91F33EB2314934FF44063A8
:1058A0001B934FF4005317934FF440431C93A023D2
:1058B0001693062319934FF0805321934FF04073B2
:1058C000CDE906671D9305F0F7FE034600288AD050
:1058D000434684F85C8086E701230322184684F857
:1058E0005C2023B0BDE8F083000000000100000050
:1058F0001000000001000000000000000000400057
:1059000078120024005000522DE9F04F8FB0414B27
:105910000024026800AF9A427C63C7E90944C7E9E2
:105920000B4403D03C37BD46BDE8F08F3A4B40F600
:1059300009213A48EB46D3F8D42007F11C0607F1B9
:10594000220A4FF0020942F480424FF00308C3F8E4
:10595000D420D3F8D42002F48042BA60BA68D3F8D5
:10596000E02042F04002C3F8E020D3F8E02002F04B
:105970004002FA60FA68D3F8E02042F02002C3F84F
:10598000E020D3F8E02002F020023A613A69D3F82F
:10599000E02042F01002C3F8E020D3F8E02002F04B
:1059A00010027A617A69D3F8E02042F00202C3F86B
:1059B000E020D3F8E030F86103F002033984BB61E2
:1059C000174B7B60BB697B6853F8040F7B6001F069
:1059D000F9FD7B680546186801F0FCFD16F8013BEF
:1059E000786207F124012846C7F830807B63C7E955
:1059F0000A9403F08FFD5645E5D100225C20114644
:105A000002F00CFD5C2002F047FD3C37DD46BD4650
:105A1000BDE8F08F00500052004402580A0A0909FC
:105A2000D4120024114B02689A4200D07047104AE9
:105A300070B5D2F8D4300F4C23F4804304F118062B
:105A4000C2F8D43054F8040F01F0BCFD05462068BC
:105A500001F0C0FD0146284603F09CFEB442F1D19E
:105A60005C20BDE8704002F025BD00BF0050005230
:105A700000440258D4120024014805F0A9BE00BF1A
:105A800088120024084B1A1D981D03F1080110B458
:105A90009C1C9A6603F10A02C3E91834C3E91B018E
:105AA0005DF8044B5A6770477812002438B50368D4
:105AB00071B9026A00F1280500F5AC74012A0CBF27
:105AC000002140218BBB1D4B5722C0F858310DE0FF
:105AD000426A00F1C00500F5E874012A0CBF0021FC
